{
  "contractName": "NewsShareContract",
  "abi": [
    {
      "anonymous": false,
      "inputs": [
        {
          "indexed": false,
          "internalType": "uint256",
          "name": "newsIndex",
          "type": "uint256"
        }
      ],
      "name": "NewsAdded",
      "type": "event"
    },
    {
      "inputs": [
        {
          "internalType": "uint256",
          "name": "",
          "type": "uint256"
        }
      ],
      "name": "newsAddresses",
      "outputs": [
        {
          "internalType": "uint256",
          "name": "index",
          "type": "uint256"
        },
        {
          "internalType": "string",
          "name": "ipfsAddress",
          "type": "string"
        },
        {
          "internalType": "string",
          "name": "newsHash",
          "type": "string"
        },
        {
          "internalType": "string",
          "name": "title",
          "type": "string"
        },
        {
          "internalType": "string",
          "name": "summary",
          "type": "string"
        },
        {
          "internalType": "address",
          "name": "owner",
          "type": "address"
        }
      ],
      "stateMutability": "view",
      "type": "function",
      "constant": true
    },
    {
      "inputs": [
        {
          "internalType": "string",
          "name": "",
          "type": "string"
        }
      ],
      "name": "newsHashToOwner",
      "outputs": [
        {
          "internalType": "address",
          "name": "",
          "type": "address"
        }
      ],
      "stateMutability": "view",
      "type": "function",
      "constant": true
    },
    {
      "inputs": [
        {
          "internalType": "string",
          "name": "_ipfsAddress",
          "type": "string"
        },
        {
          "internalType": "string",
          "name": "_newsHash",
          "type": "string"
        },
        {
          "internalType": "string",
          "name": "_title",
          "type": "string"
        },
        {
          "internalType": "string",
          "name": "_summary",
          "type": "string"
        }
      ],
      "name": "addNews",
      "outputs": [],
      "stateMutability": "nonpayable",
      "type": "function"
    },
    {
      "inputs": [
        {
          "internalType": "uint256",
          "name": "index",
          "type": "uint256"
        }
      ],
      "name": "getNewsByIndex",
      "outputs": [
        {
          "components": [
            {
              "internalType": "uint256",
              "name": "index",
              "type": "uint256"
            },
            {
              "internalType": "string",
              "name": "ipfsAddress",
              "type": "string"
            },
            {
              "internalType": "string",
              "name": "newsHash",
              "type": "string"
            },
            {
              "internalType": "string",
              "name": "title",
              "type": "string"
            },
            {
              "internalType": "string",
              "name": "summary",
              "type": "string"
            },
            {
              "internalType": "address",
              "name": "owner",
              "type": "address"
            }
          ],
          "internalType": "struct NewsShareContract.NewsModel",
          "name": "",
          "type": "tuple"
        }
      ],
      "stateMutability": "view",
      "type": "function",
      "constant": true
    },
    {
      "inputs": [],
      "name": "getNews",
      "outputs": [
        {
          "components": [
            {
              "internalType": "uint256",
              "name": "index",
              "type": "uint256"
            },
            {
              "internalType": "string",
              "name": "ipfsAddress",
              "type": "string"
            },
            {
              "internalType": "string",
              "name": "newsHash",
              "type": "string"
            },
            {
              "internalType": "string",
              "name": "title",
              "type": "string"
            },
            {
              "internalType": "string",
              "name": "summary",
              "type": "string"
            },
            {
              "internalType": "address",
              "name": "owner",
              "type": "address"
            }
          ],
          "internalType": "struct NewsShareContract.NewsModel[]",
          "name": "",
          "type": "tuple[]"
        }
      ],
      "stateMutability": "view",
      "type": "function",
      "constant": true
    },
    {
      "inputs": [
        {
          "internalType": "uint256",
          "name": "page",
          "type": "uint256"
        },
        {
          "internalType": "uint256",
          "name": "pagination",
          "type": "uint256"
        }
      ],
      "name": "getNewsPaginated",
      "outputs": [
        {
          "components": [
            {
              "internalType": "uint256",
              "name": "index",
              "type": "uint256"
            },
            {
              "internalType": "string",
              "name": "ipfsAddress",
              "type": "string"
            },
            {
              "internalType": "string",
              "name": "newsHash",
              "type": "string"
            },
            {
              "internalType": "string",
              "name": "title",
              "type": "string"
            },
            {
              "internalType": "string",
              "name": "summary",
              "type": "string"
            },
            {
              "internalType": "address",
              "name": "owner",
              "type": "address"
            }
          ],
          "internalType": "struct NewsShareContract.NewsModel[]",
          "name": "",
          "type": "tuple[]"
        }
      ],
      "stateMutability": "view",
      "type": "function",
      "constant": true
    }
  ],
  "bytecode": "0x608060405234801561001057600080fd5b50611b39806100206000396000f3fe608060405234801561001057600080fd5b50600436106100625760003560e01c8063111d8171146100675780637a46c2931461008557806381314648146100b5578063c475ad2a146100d1578063ef019a6714610106578063ffa0253214610136575b600080fd5b61006f610166565b60405161007c91906113fb565b60405180910390f35b61009f600480360381019061009a919061145d565b6104e2565b6040516100ac9190611528565b60405180910390f35b6100cf60048036038101906100ca919061167f565b6107c6565b005b6100eb60048036038101906100e6919061145d565b610a1e565b6040516100fd969594939291906117be565b60405180910390f35b610120600480360381019061011b919061183b565b610caa565b60405161012d91906113fb565b60405180910390f35b610150600480360381019061014b919061187b565b611070565b60405161015d91906118c4565b60405180910390f35b60606000808054905067ffffffffffffffff81111561018857610187611554565b5b6040519080825280602002602001820160405280156101c157816020015b6101ae6110b9565b8152602001906001900390816101a65790505b50905060005b6000805490508110156104da57600081815481106101e8576101e76118df565b5b90600052602060002090600602016040518060c00160405290816000820154815260200160018201805461021b9061193d565b80601f01602080910402602001604051908101604052809291908181526020018280546102479061193d565b80156102945780601f1061026957610100808354040283529160200191610294565b820191906000526020600020905b81548152906001019060200180831161027757829003601f168201915b505050505081526020016002820180546102ad9061193d565b80601f01602080910402602001604051908101604052809291908181526020018280546102d99061193d565b80156103265780601f106102fb57610100808354040283529160200191610326565b820191906000526020600020905b81548152906001019060200180831161030957829003601f168201915b5050505050815260200160038201805461033f9061193d565b80601f016020809104026020016040519081016040528092919081815260200182805461036b9061193d565b80156103b85780601f1061038d576101008083540402835291602001916103b8565b820191906000526020600020905b81548152906001019060200180831161039b57829003601f168201915b505050505081526020016004820180546103d19061193d565b80601f01602080910402602001604051908101604052809291908181526020018280546103fd9061193d565b801561044a5780601f1061041f5761010080835404028352916020019161044a565b820191906000526020600020905b81548152906001019060200180831161042d57829003601f168201915b505050505081526020016005820160009054906101000a900473ffffffffffffffffffffffffffffffffffffffff1673ffffffffffffffffffffffffffffffffffffffff1673ffffffffffffffffffffffffffffffffffffffff16815250508282815181106104bc576104bb6118df565b5b602002602001018190525080806104d29061199d565b9150506101c7565b508091505090565b6104ea6110b9565b600082815481106104fe576104fd6118df565b5b90600052602060002090600602016040518060c0016040529081600082015481526020016001820180546105319061193d565b80601f016020809104026020016040519081016040528092919081815260200182805461055d9061193d565b80156105aa5780601f1061057f576101008083540402835291602001916105aa565b820191906000526020600020905b81548152906001019060200180831161058d57829003601f168201915b505050505081526020016002820180546105c39061193d565b80601f01602080910402602001604051908101604052809291908181526020018280546105ef9061193d565b801561063c5780601f106106115761010080835404028352916020019161063c565b820191906000526020600020905b81548152906001019060200180831161061f57829003601f168201915b505050505081526020016003820180546106559061193d565b80601f01602080910402602001604051908101604052809291908181526020018280546106819061193d565b80156106ce5780601f106106a3576101008083540402835291602001916106ce565b820191906000526020600020905b8154815290600101906020018083116106b157829003601f168201915b505050505081526020016004820180546106e79061193d565b80601f01602080910402602001604051908101604052809291908181526020018280546107139061193d565b80156107605780601f1061073557610100808354040283529160200191610760565b820191906000526020600020905b81548152906001019060200180831161074357829003601f168201915b505050505081526020016005820160009054906101000a900473ffffffffffffffffffffffffffffffffffffffff1673ffffffffffffffffffffffffffffffffffffffff1673ffffffffffffffffffffffffffffffffffffffff16815250509050919050565b82600073ffffffffffffffffffffffffffffffffffffffff166001826040516107ef9190611a21565b908152602001604051809103902060009054906101000a900473ffffffffffffffffffffffffffffffffffffffff1673ffffffffffffffffffffffffffffffffffffffff161461083e57600080fd5b60006040518060c0016040528060008054905081526020018781526020018681526020018581526020018481526020013373ffffffffffffffffffffffffffffffffffffffff1681525090503360018660405161089b9190611a21565b908152602001604051809103902060006101000a81548173ffffffffffffffffffffffffffffffffffffffff021916908373ffffffffffffffffffffffffffffffffffffffff1602179055506000819080600181540180825580915050600190039060005260206000209060060201600090919091909150600082015181600001556020820151816001019080519060200190610939929190611105565b506040820151816002019080519060200190610956929190611105565b506060820151816003019080519060200190610973929190611105565b506080820151816004019080519060200190610990929190611105565b5060a08201518160050160006101000a81548173ffffffffffffffffffffffffffffffffffffffff021916908373ffffffffffffffffffffffffffffffffffffffff16021790555050507f29e6c2bf8e42e4b6c854cc321caed58ec2c8c14374895264d198471e8d329fa7600080549050604051610a0e9190611a38565b60405180910390a1505050505050565b60008181548110610a2e57600080fd5b9060005260206000209060060201600091509050806000015490806001018054610a579061193d565b80601f0160208091040260200160405190810160405280929190818152602001828054610a839061193d565b8015610ad05780601f10610aa557610100808354040283529160200191610ad0565b820191906000526020600020905b815481529060010190602001808311610ab357829003601f168201915b505050505090806002018054610ae59061193d565b80601f0160208091040260200160405190810160405280929190818152602001828054610b119061193d565b8015610b5e5780601f10610b3357610100808354040283529160200191610b5e565b820191906000526020600020905b815481529060010190602001808311610b4157829003601f168201915b505050505090806003018054610b739061193d565b80601f0160208091040260200160405190810160405280929190818152602001828054610b9f9061193d565b8015610bec5780601f10610bc157610100808354040283529160200191610bec565b820191906000526020600020905b815481529060010190602001808311610bcf57829003601f168201915b505050505090806004018054610c019061193d565b80601f0160208091040260200160405190810160405280929190818152602001828054610c2d9061193d565b8015610c7a5780601f10610c4f57610100808354040283529160200191610c7a565b820191906000526020600020905b815481529060010190602001808311610c5d57829003601f168201915b5050505050908060050160009054906101000a900473ffffffffffffffffffffffffffffffffffffffff16905086565b606060008267ffffffffffffffff811115610cc857610cc7611554565b5b604051908082528060200260200182016040528015610d0157816020015b610cee6110b9565b815260200190600190039081610ce65790505b50905060008385610d129190611a53565b9050600084600187610d249190611aad565b610d2e9190611a53565b9050600080805490508210610d4a576000805490509050610d4e565b8190505b60008390505b818110156110625760008181548110610d7057610d6f6118df565b5b90600052602060002090600602016040518060c001604052908160008201548152602001600182018054610da39061193d565b80601f0160208091040260200160405190810160405280929190818152602001828054610dcf9061193d565b8015610e1c5780601f10610df157610100808354040283529160200191610e1c565b820191906000526020600020905b815481529060010190602001808311610dff57829003601f168201915b50505050508152602001600282018054610e359061193d565b80601f0160208091040260200160405190810160405280929190818152602001828054610e619061193d565b8015610eae5780601f10610e8357610100808354040283529160200191610eae565b820191906000526020600020905b815481529060010190602001808311610e9157829003601f168201915b50505050508152602001600382018054610ec79061193d565b80601f0160208091040260200160405190810160405280929190818152602001828054610ef39061193d565b8015610f405780601f10610f1557610100808354040283529160200191610f40565b820191906000526020600020905b815481529060010190602001808311610f2357829003601f168201915b50505050508152602001600482018054610f599061193d565b80601f0160208091040260200160405190810160405280929190818152602001828054610f859061193d565b8015610fd25780601f10610fa757610100808354040283529160200191610fd2565b820191906000526020600020905b815481529060010190602001808311610fb557829003601f168201915b505050505081526020016005820160009054906101000a900473ffffffffffffffffffffffffffffffffffffffff1673ffffffffffffffffffffffffffffffffffffffff1673ffffffffffffffffffffffffffffffffffffffff1681525050858281518110611044576110436118df565b5b6020026020010181905250808061105a9061199d565b915050610d54565b508394505050505092915050565b6001818051602081018201805184825260208301602085012081835280955050505050506000915054906101000a900473ffffffffffffffffffffffffffffffffffffffff1681565b6040518060c001604052806000815260200160608152602001606081526020016060815260200160608152602001600073ffffffffffffffffffffffffffffffffffffffff1681525090565b8280546111119061193d565b90600052602060002090601f016020900481019282611133576000855561117a565b82601f1061114c57805160ff191683800117855561117a565b8280016001018555821561117a579182015b8281111561117957825182559160200191906001019061115e565b5b509050611187919061118b565b5090565b5b808211156111a457600081600090555060010161118c565b5090565b600081519050919050565b600082825260208201905092915050565b6000819050602082019050919050565b6000819050919050565b6111e7816111d4565b82525050565b600081519050919050565b600082825260208201905092915050565b60005b8381101561122757808201518184015260208101905061120c565b83811115611236576000848401525b50505050565b6000601f19601f8301169050919050565b6000611258826111ed565b61126281856111f8565b9350611272818560208601611209565b61127b8161123c565b840191505092915050565b600073ffffffffffffffffffffffffffffffffffffffff82169050919050565b60006112b182611286565b9050919050565b6112c1816112a6565b82525050565b600060c0830160008301516112df60008601826111de565b50602083015184820360208601526112f7828261124d565b91505060408301518482036040860152611311828261124d565b9150506060830151848203606086015261132b828261124d565b91505060808301518482036080860152611345828261124d565b91505060a083015161135a60a08601826112b8565b508091505092915050565b600061137183836112c7565b905092915050565b6000602082019050919050565b6000611391826111a8565b61139b81856111b3565b9350836020820285016113ad856111c4565b8060005b858110156113e957848403895281516113ca8582611365565b94506113d583611379565b925060208a019950506001810190506113b1565b50829750879550505050505092915050565b600060208201905081810360008301526114158184611386565b905092915050565b6000604051905090565b600080fd5b600080fd5b61143a816111d4565b811461144557600080fd5b50565b60008135905061145781611431565b92915050565b60006020828403121561147357611472611427565b5b600061148184828501611448565b91505092915050565b600060c0830160008301516114a260008601826111de565b50602083015184820360208601526114ba828261124d565b915050604083015184820360408601526114d4828261124d565b915050606083015184820360608601526114ee828261124d565b91505060808301518482036080860152611508828261124d565b91505060a083015161151d60a08601826112b8565b508091505092915050565b60006020820190508181036000830152611542818461148a565b905092915050565b600080fd5b600080fd5b7f4e487b7100000000000000000000000000000000000000000000000000000000600052604160045260246000fd5b61158c8261123c565b810181811067ffffffffffffffff821117156115ab576115aa611554565b5b80604052505050565b60006115be61141d565b90506115ca8282611583565b919050565b600067ffffffffffffffff8211156115ea576115e9611554565b5b6115f38261123c565b9050602081019050919050565b82818337600083830152505050565b600061162261161d846115cf565b6115b4565b90508281526020810184848401111561163e5761163d61154f565b5b611649848285611600565b509392505050565b600082601f8301126116665761166561154a565b5b813561167684826020860161160f565b91505092915050565b6000806000806080858703121561169957611698611427565b5b600085013567ffffffffffffffff8111156116b7576116b661142c565b5b6116c387828801611651565b945050602085013567ffffffffffffffff8111156116e4576116e361142c565b5b6116f087828801611651565b935050604085013567ffffffffffffffff8111156117115761171061142c565b5b61171d87828801611651565b925050606085013567ffffffffffffffff81111561173e5761173d61142c565b5b61174a87828801611651565b91505092959194509250565b61175f816111d4565b82525050565b600082825260208201905092915050565b6000611781826111ed565b61178b8185611765565b935061179b818560208601611209565b6117a48161123c565b840191505092915050565b6117b8816112a6565b82525050565b600060c0820190506117d36000830189611756565b81810360208301526117e58188611776565b905081810360408301526117f98187611776565b9050818103606083015261180d8186611776565b905081810360808301526118218185611776565b905061183060a08301846117af565b979650505050505050565b6000806040838503121561185257611851611427565b5b600061186085828601611448565b925050602061187185828601611448565b9150509250929050565b60006020828403121561189157611890611427565b5b600082013567ffffffffffffffff8111156118af576118ae61142c565b5b6118bb84828501611651565b91505092915050565b60006020820190506118d960008301846117af565b92915050565b7f4e487b7100000000000000000000000000000000000000000000000000000000600052603260045260246000fd5b7f4e487b7100000000000000000000000000000000000000000000000000000000600052602260045260246000fd5b6000600282049050600182168061195557607f821691505b6020821081036119685761196761190e565b5b50919050565b7f4e487b7100000000000000000000000000000000000000000000000000000000600052601160045260246000fd5b60006119a8826111d4565b91507fffffffffffffffffffffffffffffffffffffffffffffffffffffffffffffffff82036119da576119d961196e565b5b600182019050919050565b600081905092915050565b60006119fb826111ed565b611a0581856119e5565b9350611a15818560208601611209565b80840191505092915050565b6000611a2d82846119f0565b915081905092915050565b6000602082019050611a4d6000830184611756565b92915050565b6000611a5e826111d4565b9150611a69836111d4565b9250817fffffffffffffffffffffffffffffffffffffffffffffffffffffffffffffffff0483118215151615611aa257611aa161196e565b5b828202905092915050565b6000611ab8826111d4565b9150611ac3836111d4565b9250827fffffffffffffffffffffffffffffffffffffffffffffffffffffffffffffffff03821115611af857611af761196e565b5b82820190509291505056fea26469706673582212206ba174b3d1086dd14b3f5908b80d1c4d5e0440d4f827e1aa80f288a6546c68de64736f6c634300080d0033",
  "immutableReferences": {},
  "source": "pragma solidity ^0.8.0;\npragma experimental ABIEncoderV2;\n\ncontract NewsShareContract {\n  event NewsAdded(uint newsIndex);\n\n  struct NewsModel {\n    uint index;\n    string ipfsAddress;\n    string newsHash;\n    string title;\n    string summary;\n    address owner;\n  }\n\n  NewsModel[] public newsAddresses;\n  mapping(string => address) public newsHashToOwner;\n\n  modifier notUsed(string memory _newsHash) {\n    require(newsHashToOwner[_newsHash] == address(0));\n    _;\n  }\n\n  function addNews(string memory _ipfsAddress, string memory _newsHash, string memory _title, string memory _summary) public notUsed(_newsHash) {\n    NewsModel memory news = NewsModel(newsAddresses.length, _ipfsAddress, _newsHash, _title, _summary, msg.sender);\n    newsHashToOwner[_newsHash] = msg.sender;\n    newsAddresses.push(news);\n    emit NewsAdded(newsAddresses.length);\n  }\n\n  function getNewsByIndex(uint index) external view returns (NewsModel memory) {\n    return newsAddresses[index];\n  }\n\n  function getNews() external view returns (NewsModel[] memory) {\n    NewsModel[] memory result = new NewsModel[](newsAddresses.length);\n    for (uint i = 0; i < newsAddresses.length; i++) {\n        result[i] = newsAddresses[i];\n    }\n    return result;\n  }\n\n  function getNewsPaginated(uint page, uint pagination) external view returns (NewsModel[] memory) {\n    NewsModel[] memory result = new NewsModel[](pagination);\n    uint offset = page * pagination;\n    uint pageCalculatedEnd = (page + 1) * pagination;\n    uint pageEnd;\n\n    if(pageCalculatedEnd >= newsAddresses.length) {\n      pageEnd = newsAddresses.length;\n    } else {\n      pageEnd = pageCalculatedEnd;\n    }\n\n    for (uint i = offset; i < pageEnd; i++) {\n      result[i] = newsAddresses[i];\n    }\n    return result;\n  }\n}\n",
  "sourcePath": "/mnt/5cc8a27c-3158-4268-868b-2fecc619b826/Projects/Webstorm/decentralized-freelance-news/truffle/contracts/news-share-contract.sol",
  "compiler": {
    "name": "solc",
    "version": "0.8.13+commit.abaa5c0e.Emscripten.clang"
  },
  "schemaVersion": "3.4.7",
  "updatedAt": "2022-05-08T21:04:28.249Z",
  "networkType": "ethereum",
  "devdoc": {
    "kind": "dev",
    "methods": {},
    "version": 1
  },
  "userdoc": {
    "kind": "user",
    "methods": {},
    "version": 1
  }
}