{
  "contractName": "NewsShareContract",
  "abi": [
    {
      "anonymous": false,
      "inputs": [
        {
          "indexed": false,
          "internalType": "uint256",
          "name": "newsIndex",
          "type": "uint256"
        }
      ],
      "name": "NewsAdded",
      "type": "event"
    },
    {
      "inputs": [
        {
          "internalType": "uint256",
          "name": "",
          "type": "uint256"
        }
      ],
      "name": "newsAddresses",
      "outputs": [
        {
          "internalType": "uint256",
          "name": "index",
          "type": "uint256"
        },
        {
          "internalType": "string",
          "name": "ipfsAddress",
          "type": "string"
        },
        {
          "internalType": "string",
          "name": "newsHash",
          "type": "string"
        },
        {
          "internalType": "string",
          "name": "title",
          "type": "string"
        },
        {
          "internalType": "string",
          "name": "summary",
          "type": "string"
        },
        {
          "internalType": "address",
          "name": "owner",
          "type": "address"
        }
      ],
      "stateMutability": "view",
      "type": "function",
      "constant": true
    },
    {
      "inputs": [
        {
          "internalType": "string",
          "name": "",
          "type": "string"
        }
      ],
      "name": "newsHashToOwner",
      "outputs": [
        {
          "internalType": "address",
          "name": "",
          "type": "address"
        }
      ],
      "stateMutability": "view",
      "type": "function",
      "constant": true
    },
    {
      "inputs": [
        {
          "components": [
            {
              "components": [
                {
                  "internalType": "uint256",
                  "name": "X",
                  "type": "uint256"
                },
                {
                  "internalType": "uint256",
                  "name": "Y",
                  "type": "uint256"
                }
              ],
              "internalType": "struct Pairing.G1Point",
              "name": "a",
              "type": "tuple"
            },
            {
              "components": [
                {
                  "internalType": "uint256[2]",
                  "name": "X",
                  "type": "uint256[2]"
                },
                {
                  "internalType": "uint256[2]",
                  "name": "Y",
                  "type": "uint256[2]"
                }
              ],
              "internalType": "struct Pairing.G2Point",
              "name": "b",
              "type": "tuple"
            },
            {
              "components": [
                {
                  "internalType": "uint256",
                  "name": "X",
                  "type": "uint256"
                },
                {
                  "internalType": "uint256",
                  "name": "Y",
                  "type": "uint256"
                }
              ],
              "internalType": "struct Pairing.G1Point",
              "name": "c",
              "type": "tuple"
            }
          ],
          "internalType": "struct Verifier.Proof",
          "name": "proof",
          "type": "tuple"
        },
        {
          "internalType": "uint256[4]",
          "name": "input",
          "type": "uint256[4]"
        }
      ],
      "name": "verifyTx",
      "outputs": [
        {
          "internalType": "bool",
          "name": "r",
          "type": "bool"
        }
      ],
      "stateMutability": "view",
      "type": "function",
      "constant": true
    },
    {
      "inputs": [
        {
          "internalType": "string",
          "name": "_ipfsAddress",
          "type": "string"
        },
        {
          "internalType": "string",
          "name": "_newsHash",
          "type": "string"
        },
        {
          "internalType": "string",
          "name": "_title",
          "type": "string"
        },
        {
          "internalType": "string",
          "name": "_summary",
          "type": "string"
        },
        {
          "components": [
            {
              "components": [
                {
                  "internalType": "uint256",
                  "name": "X",
                  "type": "uint256"
                },
                {
                  "internalType": "uint256",
                  "name": "Y",
                  "type": "uint256"
                }
              ],
              "internalType": "struct Pairing.G1Point",
              "name": "a",
              "type": "tuple"
            },
            {
              "components": [
                {
                  "internalType": "uint256[2]",
                  "name": "X",
                  "type": "uint256[2]"
                },
                {
                  "internalType": "uint256[2]",
                  "name": "Y",
                  "type": "uint256[2]"
                }
              ],
              "internalType": "struct Pairing.G2Point",
              "name": "b",
              "type": "tuple"
            },
            {
              "components": [
                {
                  "internalType": "uint256",
                  "name": "X",
                  "type": "uint256"
                },
                {
                  "internalType": "uint256",
                  "name": "Y",
                  "type": "uint256"
                }
              ],
              "internalType": "struct Pairing.G1Point",
              "name": "c",
              "type": "tuple"
            }
          ],
          "internalType": "struct Verifier.Proof",
          "name": "proof",
          "type": "tuple"
        },
        {
          "internalType": "uint256[4]",
          "name": "input",
          "type": "uint256[4]"
        }
      ],
      "name": "addNews",
      "outputs": [
        {
          "internalType": "bool",
          "name": "r",
          "type": "bool"
        }
      ],
      "stateMutability": "nonpayable",
      "type": "function"
    },
    {
      "inputs": [
        {
          "internalType": "uint256",
          "name": "index",
          "type": "uint256"
        }
      ],
      "name": "getNewsByIndex",
      "outputs": [
        {
          "components": [
            {
              "internalType": "uint256",
              "name": "index",
              "type": "uint256"
            },
            {
              "internalType": "string",
              "name": "ipfsAddress",
              "type": "string"
            },
            {
              "internalType": "string",
              "name": "newsHash",
              "type": "string"
            },
            {
              "internalType": "string",
              "name": "title",
              "type": "string"
            },
            {
              "internalType": "string",
              "name": "summary",
              "type": "string"
            },
            {
              "internalType": "address",
              "name": "owner",
              "type": "address"
            }
          ],
          "internalType": "struct NewsShareContract.NewsModel",
          "name": "",
          "type": "tuple"
        }
      ],
      "stateMutability": "view",
      "type": "function",
      "constant": true
    },
    {
      "inputs": [],
      "name": "getNews",
      "outputs": [
        {
          "components": [
            {
              "internalType": "uint256",
              "name": "index",
              "type": "uint256"
            },
            {
              "internalType": "string",
              "name": "ipfsAddress",
              "type": "string"
            },
            {
              "internalType": "string",
              "name": "newsHash",
              "type": "string"
            },
            {
              "internalType": "string",
              "name": "title",
              "type": "string"
            },
            {
              "internalType": "string",
              "name": "summary",
              "type": "string"
            },
            {
              "internalType": "address",
              "name": "owner",
              "type": "address"
            }
          ],
          "internalType": "struct NewsShareContract.NewsModel[]",
          "name": "",
          "type": "tuple[]"
        }
      ],
      "stateMutability": "view",
      "type": "function",
      "constant": true
    },
    {
      "inputs": [
        {
          "internalType": "uint256",
          "name": "page",
          "type": "uint256"
        },
        {
          "internalType": "uint256",
          "name": "pagination",
          "type": "uint256"
        }
      ],
      "name": "getNewsPaginated",
      "outputs": [
        {
          "components": [
            {
              "internalType": "uint256",
              "name": "index",
              "type": "uint256"
            },
            {
              "internalType": "string",
              "name": "ipfsAddress",
              "type": "string"
            },
            {
              "internalType": "string",
              "name": "newsHash",
              "type": "string"
            },
            {
              "internalType": "string",
              "name": "title",
              "type": "string"
            },
            {
              "internalType": "string",
              "name": "summary",
              "type": "string"
            },
            {
              "internalType": "address",
              "name": "owner",
              "type": "address"
            }
          ],
          "internalType": "struct NewsShareContract.NewsModel[]",
          "name": "",
          "type": "tuple[]"
        }
      ],
      "stateMutability": "view",
      "type": "function",
      "constant": true
    }
  ],
  "bytecode": "0x608060405234801561001057600080fd5b50612f77806100206000396000f3fe608060405234801561001057600080fd5b506004361061007d5760003560e01c8063a33629571161005b578063a336295714610100578063c475ad2a14610130578063ef019a6714610165578063ffa02532146101955761007d565b8063111d817114610082578063799afa76146100a05780637a46c293146100d0575b600080fd5b61008a6101c5565b6040516100979190612494565b60405180910390f35b6100ba60048036038101906100b591906127e7565b610541565b6040516100c79190612844565b60405180910390f35b6100ea60048036038101906100e5919061285f565b61060e565b6040516100f7919061292a565b60405180910390f35b61011a60048036038101906101159190612a01565b6108f2565b6040516101279190612844565b60405180910390f35b61014a6004803603810190610145919061285f565b610b73565b60405161015c96959493929190612b68565b60405180910390f35b61017f600480360381019061017a9190612be5565b610dff565b60405161018c9190612494565b60405180910390f35b6101af60048036038101906101aa9190612c25565b6111c5565b6040516101bc9190612c6e565b60405180910390f35b60606000808054905067ffffffffffffffff8111156101e7576101e66124cf565b5b60405190808252806020026020018201604052801561022057816020015b61020d612043565b8152602001906001900390816102055790505b50905060005b600080549050811015610539576000818154811061024757610246612c89565b5b90600052602060002090600602016040518060c00160405290816000820154815260200160018201805461027a90612ce7565b80601f01602080910402602001604051908101604052809291908181526020018280546102a690612ce7565b80156102f35780601f106102c8576101008083540402835291602001916102f3565b820191906000526020600020905b8154815290600101906020018083116102d657829003601f168201915b5050505050815260200160028201805461030c90612ce7565b80601f016020809104026020016040519081016040528092919081815260200182805461033890612ce7565b80156103855780601f1061035a57610100808354040283529160200191610385565b820191906000526020600020905b81548152906001019060200180831161036857829003601f168201915b5050505050815260200160038201805461039e90612ce7565b80601f01602080910402602001604051908101604052809291908181526020018280546103ca90612ce7565b80156104175780601f106103ec57610100808354040283529160200191610417565b820191906000526020600020905b8154815290600101906020018083116103fa57829003601f168201915b5050505050815260200160048201805461043090612ce7565b80601f016020809104026020016040519081016040528092919081815260200182805461045c90612ce7565b80156104a95780601f1061047e576101008083540402835291602001916104a9565b820191906000526020600020905b81548152906001019060200180831161048c57829003601f168201915b505050505081526020016005820160009054906101000a900473ffffffffffffffffffffffffffffffffffffffff1673ffffffffffffffffffffffffffffffffffffffff1673ffffffffffffffffffffffffffffffffffffffff168152505082828151811061051b5761051a612c89565b5b6020026020010181905250808061053190612d47565b915050610226565b508091505090565b600080600467ffffffffffffffff81111561055f5761055e6124cf565b5b60405190808252806020026020018201604052801561058d5781602001602082028036833780820191505090505b50905060005b60048110156105e6578381600481106105af576105ae612c89565b5b60200201518282815181106105c7576105c6612c89565b5b60200260200101818152505080806105de90612d47565b915050610593565b5060006105f3828661120e565b03610602576001915050610608565b60009150505b92915050565b610616612043565b6000828154811061062a57610629612c89565b5b90600052602060002090600602016040518060c00160405290816000820154815260200160018201805461065d90612ce7565b80601f016020809104026020016040519081016040528092919081815260200182805461068990612ce7565b80156106d65780601f106106ab576101008083540402835291602001916106d6565b820191906000526020600020905b8154815290600101906020018083116106b957829003601f168201915b505050505081526020016002820180546106ef90612ce7565b80601f016020809104026020016040519081016040528092919081815260200182805461071b90612ce7565b80156107685780601f1061073d57610100808354040283529160200191610768565b820191906000526020600020905b81548152906001019060200180831161074b57829003601f168201915b5050505050815260200160038201805461078190612ce7565b80601f01602080910402602001604051908101604052809291908181526020018280546107ad90612ce7565b80156107fa5780601f106107cf576101008083540402835291602001916107fa565b820191906000526020600020905b8154815290600101906020018083116107dd57829003601f168201915b5050505050815260200160048201805461081390612ce7565b80601f016020809104026020016040519081016040528092919081815260200182805461083f90612ce7565b801561088c5780601f106108615761010080835404028352916020019161088c565b820191906000526020600020905b81548152906001019060200180831161086f57829003601f168201915b505050505081526020016005820160009054906101000a900473ffffffffffffffffffffffffffffffffffffffff1673ffffffffffffffffffffffffffffffffffffffff1673ffffffffffffffffffffffffffffffffffffffff16815250509050919050565b600085600073ffffffffffffffffffffffffffffffffffffffff1660018260405161091d9190612dcb565b908152602001604051809103902060009054906101000a900473ffffffffffffffffffffffffffffffffffffffff1673ffffffffffffffffffffffffffffffffffffffff161461096c57600080fd5b60006109788585610541565b905080610989576000925050610b68565b60006040518060c0016040528060008054905081526020018b81526020018a81526020018981526020018881526020013373ffffffffffffffffffffffffffffffffffffffff1681525090503360018a6040516109e69190612dcb565b908152602001604051809103902060006101000a81548173ffffffffffffffffffffffffffffffffffffffff021916908373ffffffffffffffffffffffffffffffffffffffff1602179055506000819080600181540180825580915050600190039060005260206000209060060201600090919091909150600082015181600001556020820151816001019080519060200190610a8492919061208f565b506040820151816002019080519060200190610aa192919061208f565b506060820151816003019080519060200190610abe92919061208f565b506080820151816004019080519060200190610adb92919061208f565b5060a08201518160050160006101000a81548173ffffffffffffffffffffffffffffffffffffffff021916908373ffffffffffffffffffffffffffffffffffffffff16021790555050507f29e6c2bf8e42e4b6c854cc321caed58ec2c8c14374895264d198471e8d329fa7600080549050604051610b599190612de2565b60405180910390a16001935050505b509695505050505050565b60008181548110610b8357600080fd5b9060005260206000209060060201600091509050806000015490806001018054610bac90612ce7565b80601f0160208091040260200160405190810160405280929190818152602001828054610bd890612ce7565b8015610c255780601f10610bfa57610100808354040283529160200191610c25565b820191906000526020600020905b815481529060010190602001808311610c0857829003601f168201915b505050505090806002018054610c3a90612ce7565b80601f0160208091040260200160405190810160405280929190818152602001828054610c6690612ce7565b8015610cb35780601f10610c8857610100808354040283529160200191610cb3565b820191906000526020600020905b815481529060010190602001808311610c9657829003601f168201915b505050505090806003018054610cc890612ce7565b80601f0160208091040260200160405190810160405280929190818152602001828054610cf490612ce7565b8015610d415780601f10610d1657610100808354040283529160200191610d41565b820191906000526020600020905b815481529060010190602001808311610d2457829003601f168201915b505050505090806004018054610d5690612ce7565b80601f0160208091040260200160405190810160405280929190818152602001828054610d8290612ce7565b8015610dcf5780601f10610da457610100808354040283529160200191610dcf565b820191906000526020600020905b815481529060010190602001808311610db257829003601f168201915b5050505050908060050160009054906101000a900473ffffffffffffffffffffffffffffffffffffffff16905086565b606060008267ffffffffffffffff811115610e1d57610e1c6124cf565b5b604051908082528060200260200182016040528015610e5657816020015b610e43612043565b815260200190600190039081610e3b5790505b50905060008385610e679190612dfd565b9050600084600187610e799190612e57565b610e839190612dfd565b9050600080805490508210610e9f576000805490509050610ea3565b8190505b60008390505b818110156111b75760008181548110610ec557610ec4612c89565b5b90600052602060002090600602016040518060c001604052908160008201548152602001600182018054610ef890612ce7565b80601f0160208091040260200160405190810160405280929190818152602001828054610f2490612ce7565b8015610f715780601f10610f4657610100808354040283529160200191610f71565b820191906000526020600020905b815481529060010190602001808311610f5457829003601f168201915b50505050508152602001600282018054610f8a90612ce7565b80601f0160208091040260200160405190810160405280929190818152602001828054610fb690612ce7565b80156110035780601f10610fd857610100808354040283529160200191611003565b820191906000526020600020905b815481529060010190602001808311610fe657829003601f168201915b5050505050815260200160038201805461101c90612ce7565b80601f016020809104026020016040519081016040528092919081815260200182805461104890612ce7565b80156110955780601f1061106a57610100808354040283529160200191611095565b820191906000526020600020905b81548152906001019060200180831161107857829003601f168201915b505050505081526020016004820180546110ae90612ce7565b80601f01602080910402602001604051908101604052809291908181526020018280546110da90612ce7565b80156111275780601f106110fc57610100808354040283529160200191611127565b820191906000526020600020905b81548152906001019060200180831161110a57829003601f168201915b505050505081526020016005820160009054906101000a900473ffffffffffffffffffffffffffffffffffffffff1673ffffffffffffffffffffffffffffffffffffffff1673ffffffffffffffffffffffffffffffffffffffff168152505085828151811061119957611198612c89565b5b602002602001018190525080806111af90612d47565b915050610ea9565b508394505050505092915050565b6001818051602081018201805184825260208301602085012081835280955050505050506000915054906101000a900473ffffffffffffffffffffffffffffffffffffffff1681565b6000807f30644e72e131a029b85045b68181585d2833e84879b9709143e1f593f00000019050600061123e6113a5565b9050806080015151600186516112549190612e57565b1461125e57600080fd5b60006040518060400160405280600081526020016000815250905060005b8651811015611317578387828151811061129957611298612c89565b5b6020026020010151106112ab57600080fd5b611302826112fd85608001516001856112c49190612e57565b815181106112d5576112d4612c89565b5b60200260200101518a85815181106112f0576112ef612c89565b5b6020026020010151611911565b6119b3565b9150808061130f90612d47565b91505061127c565b5061134181836080015160008151811061133457611333612c89565b5b60200260200101516119b3565b90506113878560000151866020015161135984611a7b565b856040015161136b8a60400151611a7b565b876060015161137d8960000151611a7b565b8960200151611b20565b611397576001935050505061139f565b600093505050505b92915050565b6113ad612115565b60405180604001604052807f2993d03b6867bf2534e59db205a7e62780d7f78826481f5c163299f4af1aaf6a81526020017f038dc9e1e7a2c8efdc541bb14d9f1df7801230f4940c00ae8a5a75c117b42a388152508160000181905250604051806040016040528060405180604001604052807f19b6c7f7d8b126646edd1ca33bf5828f431cd649dde8846cb1e000b3718c46dd81526020017f0725c6af267d4eb526417efa8d3c7d33989d8c399eb2736ecddce1817a82c3fb815250815260200160405180604001604052807f2dabe79525ccb6e741bc5b3809fb5f68acfa1d7184665b0e2607f7c0a192756e81526020017f27954161dc0071944e31fe8705876a928a8b1456dc78970e4ea42c2d25931ddf8152508152508160200181905250604051806040016040528060405180604001604052807f156f7d65b9abf81d21c30cad13616ee2f419bea291926ec88d2511c79ddd695d81526020017f11efc7b4b4c4aad654dca36f1d059da0824e1a728f4577dd45a6434332444b24815250815260200160405180604001604052807f276fbff2bd8328733b271a4fc60cb66c74baac136598369d3c7857f967dd9a8a81526020017f0609fc2bb314edc8c0ed90319a486f844aa48d72b61d53915b2bfae486289f1d8152508152508160400181905250604051806040016040528060405180604001604052807f1e54630d5e2b35a19de0c9496d390c4ed24d3325efdebaba5b7df95c5a595eb381526020017f0e92ee39ba2b8a7a631b1aa13f608a50bef7f5d9529ac30404fa87bca40e950e815250815260200160405180604001604052807f2b169aaa861fc5de2eb1840fdd6787c9ea78425949f2a7a5374444ab05e1465581526020017f0bff81dd5517f2e24d69fe672049f062f609f9643d472110e690419fc22c3af68152508152508160600181905250600567ffffffffffffffff811115611674576116736124cf565b5b6040519080825280602002602001820160405280156116ad57816020015b61169a61215c565b8152602001906001900390816116925790505b50816080018190525060405180604001604052807f224b57cc865cff5d6ba1c1cc1dcf2b0889f2f4f04ae1f67b7523a2f12aa6f56c81526020017f2d2d84dfda8b595c9d34ea737e01bdd7ee1a4c57fb418854765701345ca0f6fb815250816080015160008151811061172357611722612c89565b5b602002602001018190525060405180604001604052807f2b25ee258d391063bfd3828fb229f9315c92366eacb492cd4f745f6b20fbc4c381526020017f2fdc5265fce0cfa5bdbcf8177469c3c2538ed8a100ec892c1c404ef9e61196b1815250816080015160018151811061179b5761179a612c89565b5b602002602001018190525060405180604001604052807f0d64892d3ba585ac69ed5b9b710dbfa97056930f8c54a499b68d03cdc934b9e581526020017f1e188c277177e80ac9b9e1ff788f8d20a4eb91483a719c77b9f846886e7ea366815250816080015160028151811061181357611812612c89565b5b602002602001018190525060405180604001604052807f06c1f9f97a7137f3ea7062899afea785781b76115b0364c31de613536fde9e0381526020017f08554be31cea709f50ac7dc9cd2dcd778696e3adc2b77e079cf1696b53e64ef2815250816080015160038151811061188b5761188a612c89565b5b602002602001018190525060405180604001604052807f15d0e1ccbae09422682904c28fc8760f8898d84ae5e5e4736a18ee35081d899c81526020017f0183af6ad6469b295865746902fa8525b7ff111b74c107781448c27fd9dfccdd815250816080015160048151811061190357611902612c89565b5b602002602001018190525090565b61191961215c565b611921612176565b83600001518160006003811061193a57611939612c89565b5b60200201818152505083602001518160016003811061195c5761195b612c89565b5b602002018181525050828160026003811061197a57611979612c89565b5b602002018181525050600060608360808460076107d05a03fa905080600081036119a057fe5b50806119ab57600080fd5b505092915050565b6119bb61215c565b6119c3612198565b8360000151816000600481106119dc576119db612c89565b5b6020020181815250508360200151816001600481106119fe576119fd612c89565b5b602002018181525050826000015181600260048110611a2057611a1f612c89565b5b602002018181525050826020015181600360048110611a4257611a41612c89565b5b602002018181525050600060608360c08460066107d05a03fa90508060008103611a6857fe5b5080611a7357600080fd5b505092915050565b611a8361215c565b60007f30644e72e131a029b85045b68181585d97816a916871ca8d3c208c16d87cfd47905060008360000151148015611ac0575060008360200151145b15611ae4576040518060400160405280600081526020016000815250915050611b1b565b604051806040016040528084600001518152602001828560200151611b099190612edc565b83611b149190612f0d565b8152509150505b919050565b600080600467ffffffffffffffff811115611b3e57611b3d6124cf565b5b604051908082528060200260200182016040528015611b7757816020015b611b6461215c565b815260200190600190039081611b5c5790505b5090506000600467ffffffffffffffff811115611b9757611b966124cf565b5b604051908082528060200260200182016040528015611bd057816020015b611bbd6121ba565b815260200190600190039081611bb55790505b5090508a82600081518110611be857611be7612c89565b5b60200260200101819052508882600181518110611c0857611c07612c89565b5b60200260200101819052508682600281518110611c2857611c27612c89565b5b60200260200101819052508482600381518110611c4857611c47612c89565b5b60200260200101819052508981600081518110611c6857611c67612c89565b5b60200260200101819052508781600181518110611c8857611c87612c89565b5b60200260200101819052508581600281518110611ca857611ca7612c89565b5b60200260200101819052508381600381518110611cc857611cc7612c89565b5b6020026020010181905250611cdd8282611ced565b9250505098975050505050505050565b60008151835114611cfd57600080fd5b6000835190506000600682611d129190612dfd565b905060008167ffffffffffffffff811115611d3057611d2f6124cf565b5b604051908082528060200260200182016040528015611d5e5781602001602082028036833780820191505090505b50905060005b83811015611fe357868181518110611d7f57611d7e612c89565b5b602002602001015160000151826000600684611d9b9190612dfd565b611da59190612e57565b81518110611db657611db5612c89565b5b602002602001018181525050868181518110611dd557611dd4612c89565b5b602002602001015160200151826001600684611df19190612dfd565b611dfb9190612e57565b81518110611e0c57611e0b612c89565b5b602002602001018181525050858181518110611e2b57611e2a612c89565b5b602002602001015160000151600160028110611e4a57611e49612c89565b5b6020020151826002600684611e5f9190612dfd565b611e699190612e57565b81518110611e7a57611e79612c89565b5b602002602001018181525050858181518110611e9957611e98612c89565b5b602002602001015160000151600060028110611eb857611eb7612c89565b5b6020020151826003600684611ecd9190612dfd565b611ed79190612e57565b81518110611ee857611ee7612c89565b5b602002602001018181525050858181518110611f0757611f06612c89565b5b602002602001015160200151600160028110611f2657611f25612c89565b5b6020020151826004600684611f3b9190612dfd565b611f459190612e57565b81518110611f5657611f55612c89565b5b602002602001018181525050858181518110611f7557611f74612c89565b5b602002602001015160200151600060028110611f9457611f93612c89565b5b6020020151826005600684611fa99190612dfd565b611fb39190612e57565b81518110611fc457611fc3612c89565b5b6020026020010181815250508080611fdb90612d47565b915050611d64565b50611fec6121e0565b6000602082602086026020860160086107d05a03fa9050806000810361200e57fe5b508061201957600080fd5b60008260006001811061202f5761202e612c89565b5b602002015114159550505050505092915050565b6040518060c001604052806000815260200160608152602001606081526020016060815260200160608152602001600073ffffffffffffffffffffffffffffffffffffffff1681525090565b82805461209b90612ce7565b90600052602060002090601f0160209004810192826120bd5760008555612104565b82601f106120d657805160ff1916838001178555612104565b82800160010185558215612104579182015b828111156121035782518255916020019190600101906120e8565b5b5090506121119190612202565b5090565b6040518060a0016040528061212861215c565b81526020016121356121ba565b81526020016121426121ba565b815260200161214f6121ba565b8152602001606081525090565b604051806040016040528060008152602001600081525090565b6040518060600160405280600390602082028036833780820191505090505090565b6040518060800160405280600490602082028036833780820191505090505090565b60405180604001604052806121cd61221f565b81526020016121da61221f565b81525090565b6040518060200160405280600190602082028036833780820191505090505090565b5b8082111561221b576000816000905550600101612203565b5090565b6040518060400160405280600290602082028036833780820191505090505090565b600081519050919050565b600082825260208201905092915050565b6000819050602082019050919050565b6000819050919050565b6122808161226d565b82525050565b600081519050919050565b600082825260208201905092915050565b60005b838110156122c05780820151818401526020810190506122a5565b838111156122cf576000848401525b50505050565b6000601f19601f8301169050919050565b60006122f182612286565b6122fb8185612291565b935061230b8185602086016122a2565b612314816122d5565b840191505092915050565b600073ffffffffffffffffffffffffffffffffffffffff82169050919050565b600061234a8261231f565b9050919050565b61235a8161233f565b82525050565b600060c0830160008301516123786000860182612277565b506020830151848203602086015261239082826122e6565b915050604083015184820360408601526123aa82826122e6565b915050606083015184820360608601526123c482826122e6565b915050608083015184820360808601526123de82826122e6565b91505060a08301516123f360a0860182612351565b508091505092915050565b600061240a8383612360565b905092915050565b6000602082019050919050565b600061242a82612241565b612434818561224c565b9350836020820285016124468561225d565b8060005b85811015612482578484038952815161246385826123fe565b945061246e83612412565b925060208a0199505060018101905061244a565b50829750879550505050505092915050565b600060208201905081810360008301526124ae818461241f565b905092915050565b6000604051905090565b600080fd5b600080fd5b600080fd5b7f4e487b7100000000000000000000000000000000000000000000000000000000600052604160045260246000fd5b612507826122d5565b810181811067ffffffffffffffff82111715612526576125256124cf565b5b80604052505050565b60006125396124b6565b905061254582826124fe565b919050565b6125538161226d565b811461255e57600080fd5b50565b6000813590506125708161254a565b92915050565b60006040828403121561258c5761258b6124ca565b5b612596604061252f565b905060006125a684828501612561565b60008301525060206125ba84828501612561565b60208301525092915050565b600080fd5b600067ffffffffffffffff8211156125e6576125e56124cf565b5b602082029050919050565b600080fd5b6000612609612604846125cb565b61252f565b90508060208402830185811115612623576126226125f1565b5b835b8181101561264c57806126388882612561565b845260208401935050602081019050612625565b5050509392505050565b600082601f83011261266b5761266a6125c6565b5b60026126788482856125f6565b91505092915050565b600060808284031215612697576126966124ca565b5b6126a1604061252f565b905060006126b184828501612656565b60008301525060406126c584828501612656565b60208301525092915050565b600061010082840312156126e8576126e76124ca565b5b6126f2606061252f565b9050600061270284828501612576565b600083015250604061271684828501612681565b60208301525060c061272a84828501612576565b60408301525092915050565b600067ffffffffffffffff821115612751576127506124cf565b5b602082029050919050565b600061276f61276a84612736565b61252f565b90508060208402830185811115612789576127886125f1565b5b835b818110156127b2578061279e8882612561565b84526020840193505060208101905061278b565b5050509392505050565b600082601f8301126127d1576127d06125c6565b5b60046127de84828561275c565b91505092915050565b60008061018083850312156127ff576127fe6124c0565b5b600061280d858286016126d1565b92505061010061281f858286016127bc565b9150509250929050565b60008115159050919050565b61283e81612829565b82525050565b60006020820190506128596000830184612835565b92915050565b600060208284031215612875576128746124c0565b5b600061288384828501612561565b91505092915050565b600060c0830160008301516128a46000860182612277565b50602083015184820360208601526128bc82826122e6565b915050604083015184820360408601526128d682826122e6565b915050606083015184820360608601526128f082826122e6565b9150506080830151848203608086015261290a82826122e6565b91505060a083015161291f60a0860182612351565b508091505092915050565b60006020820190508181036000830152612944818461288c565b905092915050565b600080fd5b600067ffffffffffffffff82111561296c5761296b6124cf565b5b612975826122d5565b9050602081019050919050565b82818337600083830152505050565b60006129a461299f84612951565b61252f565b9050828152602081018484840111156129c0576129bf61294c565b5b6129cb848285612982565b509392505050565b600082601f8301126129e8576129e76125c6565b5b81356129f8848260208601612991565b91505092915050565b6000806000806000806102008789031215612a1f57612a1e6124c0565b5b600087013567ffffffffffffffff811115612a3d57612a3c6124c5565b5b612a4989828a016129d3565b965050602087013567ffffffffffffffff811115612a6a57612a696124c5565b5b612a7689828a016129d3565b955050604087013567ffffffffffffffff811115612a9757612a966124c5565b5b612aa389828a016129d3565b945050606087013567ffffffffffffffff811115612ac457612ac36124c5565b5b612ad089828a016129d3565b9350506080612ae189828a016126d1565b925050610180612af389828a016127bc565b9150509295509295509295565b612b098161226d565b82525050565b600082825260208201905092915050565b6000612b2b82612286565b612b358185612b0f565b9350612b458185602086016122a2565b612b4e816122d5565b840191505092915050565b612b628161233f565b82525050565b600060c082019050612b7d6000830189612b00565b8181036020830152612b8f8188612b20565b90508181036040830152612ba38187612b20565b90508181036060830152612bb78186612b20565b90508181036080830152612bcb8185612b20565b9050612bda60a0830184612b59565b979650505050505050565b60008060408385031215612bfc57612bfb6124c0565b5b6000612c0a85828601612561565b9250506020612c1b85828601612561565b9150509250929050565b600060208284031215612c3b57612c3a6124c0565b5b600082013567ffffffffffffffff811115612c5957612c586124c5565b5b612c65848285016129d3565b91505092915050565b6000602082019050612c836000830184612b59565b92915050565b7f4e487b7100000000000000000000000000000000000000000000000000000000600052603260045260246000fd5b7f4e487b7100000000000000000000000000000000000000000000000000000000600052602260045260246000fd5b60006002820490506001821680612cff57607f821691505b602082108103612d1257612d11612cb8565b5b50919050565b7f4e487b7100000000000000000000000000000000000000000000000000000000600052601160045260246000fd5b6000612d528261226d565b91507fffffffffffffffffffffffffffffffffffffffffffffffffffffffffffffffff8203612d8457612d83612d18565b5b600182019050919050565b600081905092915050565b6000612da582612286565b612daf8185612d8f565b9350612dbf8185602086016122a2565b80840191505092915050565b6000612dd78284612d9a565b915081905092915050565b6000602082019050612df76000830184612b00565b92915050565b6000612e088261226d565b9150612e138361226d565b9250817fffffffffffffffffffffffffffffffffffffffffffffffffffffffffffffffff0483118215151615612e4c57612e4b612d18565b5b828202905092915050565b6000612e628261226d565b9150612e6d8361226d565b9250827fffffffffffffffffffffffffffffffffffffffffffffffffffffffffffffffff03821115612ea257612ea1612d18565b5b828201905092915050565b7f4e487b7100000000000000000000000000000000000000000000000000000000600052601260045260246000fd5b6000612ee78261226d565b9150612ef28361226d565b925082612f0257612f01612ead565b5b828206905092915050565b6000612f188261226d565b9150612f238361226d565b925082821015612f3657612f35612d18565b5b82820390509291505056fea26469706673582212201731c1e32322ac6161d2575d2f681872ffa93ca9578fe048253aea5f3cb1160064736f6c634300080d0033",
  "immutableReferences": {},
  "source": "pragma solidity ^0.8.0;\npragma experimental ABIEncoderV2;\n\nimport './verifier.sol';\n\ncontract NewsShareContract is Verifier {\n  event NewsAdded(uint newsIndex);\n\n  struct NewsModel {\n    uint index;\n    string ipfsAddress;\n    string newsHash;\n    string title;\n    string summary;\n    address owner;\n  }\n\n  NewsModel[] public newsAddresses;\n  mapping(string => address) public newsHashToOwner;\n\n  modifier notUsed(string memory _newsHash) {\n    require(newsHashToOwner[_newsHash] == address(0));\n    _;\n  }\n\n  function addNews(string memory _ipfsAddress, string memory _newsHash, string memory _title, string memory _summary, Proof memory proof, uint[4] memory input) public notUsed(_newsHash) returns (bool r) {\n    bool isVerified = verifyTx(proof, input);\n    if(!isVerified){\n      return false;\n    }\n    NewsModel memory news = NewsModel(newsAddresses.length, _ipfsAddress, _newsHash, _title, _summary, msg.sender);\n    newsHashToOwner[_newsHash] = msg.sender;\n    newsAddresses.push(news);\n    emit NewsAdded(newsAddresses.length);\n    return true;\n  }\n\n  function getNewsByIndex(uint index) external view returns (NewsModel memory) {\n    return newsAddresses[index];\n  }\n\n  function getNews() external view returns (NewsModel[] memory) {\n    NewsModel[] memory result = new NewsModel[](newsAddresses.length);\n    for (uint i = 0; i < newsAddresses.length; i++) {\n        result[i] = newsAddresses[i];\n    }\n    return result;\n  }\n\n  function getNewsPaginated(uint page, uint pagination) external view returns (NewsModel[] memory) {\n    NewsModel[] memory result = new NewsModel[](pagination);\n    uint offset = page * pagination;\n    uint pageCalculatedEnd = (page + 1) * pagination;\n    uint pageEnd;\n\n    if(pageCalculatedEnd >= newsAddresses.length) {\n      pageEnd = newsAddresses.length;\n    } else {\n      pageEnd = pageCalculatedEnd;\n    }\n\n    for (uint i = offset; i < pageEnd; i++) {\n      result[i] = newsAddresses[i];\n    }\n    return result;\n  }\n}\n",
  "sourcePath": "/mnt/5cc8a27c-3158-4268-868b-2fecc619b826/Projects/Webstorm/decentralized-freelance-news/truffle/contracts/news-share-contract.sol",
  "compiler": {
    "name": "solc",
    "version": "0.8.13+commit.abaa5c0e.Emscripten.clang"
  },
  "schemaVersion": "3.4.7",
  "updatedAt": "2022-05-16T17:44:47.231Z",
  "networkType": "ethereum",
  "devdoc": {
    "kind": "dev",
    "methods": {},
    "version": 1
  },
  "userdoc": {
    "kind": "user",
    "methods": {},
    "version": 1
  }
}