{
  "contractName": "NewsShareContract",
  "abi": [
    {
      "anonymous": false,
      "inputs": [
        {
          "indexed": false,
          "internalType": "uint256",
          "name": "newsIndex",
          "type": "uint256"
        }
      ],
      "name": "NewsAdded",
      "type": "event"
    },
    {
      "inputs": [
        {
          "internalType": "uint256",
          "name": "",
          "type": "uint256"
        }
      ],
      "name": "newsAddresses",
      "outputs": [
        {
          "internalType": "uint256",
          "name": "index",
          "type": "uint256"
        },
        {
          "internalType": "string",
          "name": "ipfsAddress",
          "type": "string"
        },
        {
          "internalType": "string",
          "name": "newsHash",
          "type": "string"
        },
        {
          "internalType": "string",
          "name": "title",
          "type": "string"
        },
        {
          "internalType": "string",
          "name": "summary",
          "type": "string"
        },
        {
          "internalType": "string",
          "name": "contentType",
          "type": "string"
        },
        {
          "internalType": "uint256",
          "name": "rating",
          "type": "uint256"
        },
        {
          "internalType": "address",
          "name": "owner",
          "type": "address"
        }
      ],
      "stateMutability": "view",
      "type": "function",
      "constant": true
    },
    {
      "inputs": [
        {
          "internalType": "string",
          "name": "",
          "type": "string"
        }
      ],
      "name": "newsHashToOwner",
      "outputs": [
        {
          "internalType": "address",
          "name": "",
          "type": "address"
        }
      ],
      "stateMutability": "view",
      "type": "function",
      "constant": true
    },
    {
      "inputs": [
        {
          "components": [
            {
              "components": [
                {
                  "internalType": "uint256",
                  "name": "X",
                  "type": "uint256"
                },
                {
                  "internalType": "uint256",
                  "name": "Y",
                  "type": "uint256"
                }
              ],
              "internalType": "struct Pairing.G1Point",
              "name": "a",
              "type": "tuple"
            },
            {
              "components": [
                {
                  "internalType": "uint256[2]",
                  "name": "X",
                  "type": "uint256[2]"
                },
                {
                  "internalType": "uint256[2]",
                  "name": "Y",
                  "type": "uint256[2]"
                }
              ],
              "internalType": "struct Pairing.G2Point",
              "name": "b",
              "type": "tuple"
            },
            {
              "components": [
                {
                  "internalType": "uint256",
                  "name": "X",
                  "type": "uint256"
                },
                {
                  "internalType": "uint256",
                  "name": "Y",
                  "type": "uint256"
                }
              ],
              "internalType": "struct Pairing.G1Point",
              "name": "c",
              "type": "tuple"
            }
          ],
          "internalType": "struct Verifier.Proof",
          "name": "proof",
          "type": "tuple"
        },
        {
          "internalType": "uint256[4]",
          "name": "input",
          "type": "uint256[4]"
        }
      ],
      "name": "verifyTx",
      "outputs": [
        {
          "internalType": "bool",
          "name": "r",
          "type": "bool"
        }
      ],
      "stateMutability": "view",
      "type": "function",
      "constant": true
    },
    {
      "inputs": [
        {
          "internalType": "string",
          "name": "a",
          "type": "string"
        },
        {
          "internalType": "string",
          "name": "b",
          "type": "string"
        }
      ],
      "name": "compareStrings",
      "outputs": [
        {
          "internalType": "bool",
          "name": "",
          "type": "bool"
        }
      ],
      "stateMutability": "view",
      "type": "function",
      "constant": true
    },
    {
      "inputs": [
        {
          "internalType": "string",
          "name": "_ipfsAddress",
          "type": "string"
        },
        {
          "internalType": "string",
          "name": "_newsHash",
          "type": "string"
        },
        {
          "internalType": "string",
          "name": "_title",
          "type": "string"
        },
        {
          "internalType": "string",
          "name": "_summary",
          "type": "string"
        },
        {
          "internalType": "string",
          "name": "_contentType",
          "type": "string"
        }
      ],
      "name": "addNews",
      "outputs": [
        {
          "internalType": "bool",
          "name": "r",
          "type": "bool"
        }
      ],
      "stateMutability": "nonpayable",
      "type": "function"
    },
    {
      "inputs": [
        {
          "internalType": "uint256",
          "name": "index",
          "type": "uint256"
        }
      ],
      "name": "getNewsByIndex",
      "outputs": [
        {
          "components": [
            {
              "internalType": "uint256",
              "name": "index",
              "type": "uint256"
            },
            {
              "internalType": "string",
              "name": "ipfsAddress",
              "type": "string"
            },
            {
              "internalType": "string",
              "name": "newsHash",
              "type": "string"
            },
            {
              "internalType": "string",
              "name": "title",
              "type": "string"
            },
            {
              "internalType": "string",
              "name": "summary",
              "type": "string"
            },
            {
              "internalType": "string",
              "name": "contentType",
              "type": "string"
            },
            {
              "internalType": "uint256",
              "name": "rating",
              "type": "uint256"
            },
            {
              "internalType": "address",
              "name": "owner",
              "type": "address"
            }
          ],
          "internalType": "struct NewsShareContract.NewsModel",
          "name": "",
          "type": "tuple"
        }
      ],
      "stateMutability": "view",
      "type": "function",
      "constant": true
    },
    {
      "inputs": [],
      "name": "getNews",
      "outputs": [
        {
          "components": [
            {
              "internalType": "uint256",
              "name": "index",
              "type": "uint256"
            },
            {
              "internalType": "string",
              "name": "ipfsAddress",
              "type": "string"
            },
            {
              "internalType": "string",
              "name": "newsHash",
              "type": "string"
            },
            {
              "internalType": "string",
              "name": "title",
              "type": "string"
            },
            {
              "internalType": "string",
              "name": "summary",
              "type": "string"
            },
            {
              "internalType": "string",
              "name": "contentType",
              "type": "string"
            },
            {
              "internalType": "uint256",
              "name": "rating",
              "type": "uint256"
            },
            {
              "internalType": "address",
              "name": "owner",
              "type": "address"
            }
          ],
          "internalType": "struct NewsShareContract.NewsModel[]",
          "name": "",
          "type": "tuple[]"
        }
      ],
      "stateMutability": "view",
      "type": "function",
      "constant": true
    }
  ],
  "bytecode": "0x608060405234801561001057600080fd5b50612f94806100206000396000f3fe608060405234801561001057600080fd5b506004361061007d5760003560e01c8063a1ab61da1161005b578063a1ab61da14610100578063bed34bba14610130578063c475ad2a14610160578063ffa02532146101975761007d565b8063111d817114610082578063799afa76146100a05780637a46c293146100d0575b600080fd5b61008a6101c7565b604051610097919061241f565b60405180910390f35b6100ba60048036038101906100b59190612772565b6105e0565b6040516100c791906127cf565b60405180910390f35b6100ea60048036038101906100e591906127ea565b6106ad565b6040516100f791906128e3565b60405180910390f35b61011a600480360381019061011591906129ba565b610a2e565b60405161012791906127cf565b60405180910390f35b61014a60048036038101906101459190612ac1565b610d9a565b60405161015791906127cf565b60405180910390f35b61017a600480360381019061017591906127ea565b610df3565b60405161018e989796959493929190612ba1565b60405180910390f35b6101b160048036038101906101ac9190612c42565b611113565b6040516101be9190612c8b565b60405180910390f35b60606000808054905067ffffffffffffffff8111156101e9576101e861245a565b5b60405190808252806020026020018201604052801561022257816020015b61020f611f91565b8152602001906001900390816102075790505b50905060005b6000805490508110156105d8576000818154811061024957610248612ca6565b5b9060005260206000209060080201604051806101000160405290816000820154815260200160018201805461027d90612d04565b80601f01602080910402602001604051908101604052809291908181526020018280546102a990612d04565b80156102f65780601f106102cb576101008083540402835291602001916102f6565b820191906000526020600020905b8154815290600101906020018083116102d957829003601f168201915b5050505050815260200160028201805461030f90612d04565b80601f016020809104026020016040519081016040528092919081815260200182805461033b90612d04565b80156103885780601f1061035d57610100808354040283529160200191610388565b820191906000526020600020905b81548152906001019060200180831161036b57829003601f168201915b505050505081526020016003820180546103a190612d04565b80601f01602080910402602001604051908101604052809291908181526020018280546103cd90612d04565b801561041a5780601f106103ef5761010080835404028352916020019161041a565b820191906000526020600020905b8154815290600101906020018083116103fd57829003601f168201915b5050505050815260200160048201805461043390612d04565b80601f016020809104026020016040519081016040528092919081815260200182805461045f90612d04565b80156104ac5780601f10610481576101008083540402835291602001916104ac565b820191906000526020600020905b81548152906001019060200180831161048f57829003601f168201915b505050505081526020016005820180546104c590612d04565b80601f01602080910402602001604051908101604052809291908181526020018280546104f190612d04565b801561053e5780601f106105135761010080835404028352916020019161053e565b820191906000526020600020905b81548152906001019060200180831161052157829003601f168201915b50505050508152602001600682015481526020016007820160009054906101000a900473ffffffffffffffffffffffffffffffffffffffff1673ffffffffffffffffffffffffffffffffffffffff1673ffffffffffffffffffffffffffffffffffffffff16815250508282815181106105ba576105b9612ca6565b5b602002602001018190525080806105d090612d64565b915050610228565b508091505090565b600080600467ffffffffffffffff8111156105fe576105fd61245a565b5b60405190808252806020026020018201604052801561062c5781602001602082028036833780820191505090505b50905060005b60048110156106855783816004811061064e5761064d612ca6565b5b602002015182828151811061066657610665612ca6565b5b602002602001018181525050808061067d90612d64565b915050610632565b506000610692828661115c565b036106a15760019150506106a7565b60009150505b92915050565b6106b5611f91565b600082815481106106c9576106c8612ca6565b5b906000526020600020906008020160405180610100016040529081600082015481526020016001820180546106fd90612d04565b80601f016020809104026020016040519081016040528092919081815260200182805461072990612d04565b80156107765780601f1061074b57610100808354040283529160200191610776565b820191906000526020600020905b81548152906001019060200180831161075957829003601f168201915b5050505050815260200160028201805461078f90612d04565b80601f01602080910402602001604051908101604052809291908181526020018280546107bb90612d04565b80156108085780601f106107dd57610100808354040283529160200191610808565b820191906000526020600020905b8154815290600101906020018083116107eb57829003601f168201915b5050505050815260200160038201805461082190612d04565b80601f016020809104026020016040519081016040528092919081815260200182805461084d90612d04565b801561089a5780601f1061086f5761010080835404028352916020019161089a565b820191906000526020600020905b81548152906001019060200180831161087d57829003601f168201915b505050505081526020016004820180546108b390612d04565b80601f01602080910402602001604051908101604052809291908181526020018280546108df90612d04565b801561092c5780601f106109015761010080835404028352916020019161092c565b820191906000526020600020905b81548152906001019060200180831161090f57829003601f168201915b5050505050815260200160058201805461094590612d04565b80601f016020809104026020016040519081016040528092919081815260200182805461097190612d04565b80156109be5780601f10610993576101008083540402835291602001916109be565b820191906000526020600020905b8154815290600101906020018083116109a157829003601f168201915b50505050508152602001600682015481526020016007820160009054906101000a900473ffffffffffffffffffffffffffffffffffffffff1673ffffffffffffffffffffffffffffffffffffffff1673ffffffffffffffffffffffffffffffffffffffff16815250509050919050565b600084600073ffffffffffffffffffffffffffffffffffffffff16600182604051610a599190612de8565b908152602001604051809103902060009054906101000a900473ffffffffffffffffffffffffffffffffffffffff1673ffffffffffffffffffffffffffffffffffffffff1614610aa857600080fd5b82610ae8816040518060400160405280600a81526020017f746578742f706c61696e00000000000000000000000000000000000000000000815250610d9a565b80610b2e5750610b2d816040518060400160405280600981526020017f766964656f2f6d70340000000000000000000000000000000000000000000000815250610d9a565b5b80610b745750610b73816040518060400160405280601481526020017f6170706c69636174696f6e2f6d61726b646f776e000000000000000000000000815250610d9a565b5b610b7d57600080fd5b600060405180610100016040528060008054905081526020018a8152602001898152602001888152602001878152602001868152602001600081526020013373ffffffffffffffffffffffffffffffffffffffff16815250905033600189604051610be89190612de8565b908152602001604051809103902060006101000a81548173ffffffffffffffffffffffffffffffffffffffff021916908373ffffffffffffffffffffffffffffffffffffffff1602179055506000819080600181540180825580915050600190039060005260206000209060080201600090919091909150600082015181600001556020820151816001019080519060200190610c86929190611fec565b506040820151816002019080519060200190610ca3929190611fec565b506060820151816003019080519060200190610cc0929190611fec565b506080820151816004019080519060200190610cdd929190611fec565b5060a0820151816005019080519060200190610cfa929190611fec565b5060c0820151816006015560e08201518160070160006101000a81548173ffffffffffffffffffffffffffffffffffffffff021916908373ffffffffffffffffffffffffffffffffffffffff16021790555050507f29e6c2bf8e42e4b6c854cc321caed58ec2c8c14374895264d198471e8d329fa7600080549050604051610d829190612dff565b60405180910390a16001935050505095945050505050565b600081604051602001610dad9190612de8565b6040516020818303038152906040528051906020012083604051602001610dd49190612de8565b6040516020818303038152906040528051906020012014905092915050565b60008181548110610e0357600080fd5b9060005260206000209060080201600091509050806000015490806001018054610e2c90612d04565b80601f0160208091040260200160405190810160405280929190818152602001828054610e5890612d04565b8015610ea55780601f10610e7a57610100808354040283529160200191610ea5565b820191906000526020600020905b815481529060010190602001808311610e8857829003601f168201915b505050505090806002018054610eba90612d04565b80601f0160208091040260200160405190810160405280929190818152602001828054610ee690612d04565b8015610f335780601f10610f0857610100808354040283529160200191610f33565b820191906000526020600020905b815481529060010190602001808311610f1657829003601f168201915b505050505090806003018054610f4890612d04565b80601f0160208091040260200160405190810160405280929190818152602001828054610f7490612d04565b8015610fc15780601f10610f9657610100808354040283529160200191610fc1565b820191906000526020600020905b815481529060010190602001808311610fa457829003601f168201915b505050505090806004018054610fd690612d04565b80601f016020809104026020016040519081016040528092919081815260200182805461100290612d04565b801561104f5780601f106110245761010080835404028352916020019161104f565b820191906000526020600020905b81548152906001019060200180831161103257829003601f168201915b50505050509080600501805461106490612d04565b80601f016020809104026020016040519081016040528092919081815260200182805461109090612d04565b80156110dd5780601f106110b2576101008083540402835291602001916110dd565b820191906000526020600020905b8154815290600101906020018083116110c057829003601f168201915b5050505050908060060154908060070160009054906101000a900473ffffffffffffffffffffffffffffffffffffffff16905088565b6001818051602081018201805184825260208301602085012081835280955050505050506000915054906101000a900473ffffffffffffffffffffffffffffffffffffffff1681565b6000807f30644e72e131a029b85045b68181585d2833e84879b9709143e1f593f00000019050600061118c6112f3565b9050806080015151600186516111a29190612e1a565b146111ac57600080fd5b60006040518060400160405280600081526020016000815250905060005b865181101561126557838782815181106111e7576111e6612ca6565b5b6020026020010151106111f957600080fd5b6112508261124b85608001516001856112129190612e1a565b8151811061122357611222612ca6565b5b60200260200101518a858151811061123e5761123d612ca6565b5b602002602001015161185f565b611901565b9150808061125d90612d64565b9150506111ca565b5061128f81836080015160008151811061128257611281612ca6565b5b6020026020010151611901565b90506112d5856000015186602001516112a7846119c9565b85604001516112b98a604001516119c9565b87606001516112cb89600001516119c9565b8960200151611a6e565b6112e557600193505050506112ed565b600093505050505b92915050565b6112fb612072565b60405180604001604052807f2993d03b6867bf2534e59db205a7e62780d7f78826481f5c163299f4af1aaf6a81526020017f038dc9e1e7a2c8efdc541bb14d9f1df7801230f4940c00ae8a5a75c117b42a388152508160000181905250604051806040016040528060405180604001604052807f19b6c7f7d8b126646edd1ca33bf5828f431cd649dde8846cb1e000b3718c46dd81526020017f0725c6af267d4eb526417efa8d3c7d33989d8c399eb2736ecddce1817a82c3fb815250815260200160405180604001604052807f2dabe79525ccb6e741bc5b3809fb5f68acfa1d7184665b0e2607f7c0a192756e81526020017f27954161dc0071944e31fe8705876a928a8b1456dc78970e4ea42c2d25931ddf8152508152508160200181905250604051806040016040528060405180604001604052807f156f7d65b9abf81d21c30cad13616ee2f419bea291926ec88d2511c79ddd695d81526020017f11efc7b4b4c4aad654dca36f1d059da0824e1a728f4577dd45a6434332444b24815250815260200160405180604001604052807f276fbff2bd8328733b271a4fc60cb66c74baac136598369d3c7857f967dd9a8a81526020017f0609fc2bb314edc8c0ed90319a486f844aa48d72b61d53915b2bfae486289f1d8152508152508160400181905250604051806040016040528060405180604001604052807f1e54630d5e2b35a19de0c9496d390c4ed24d3325efdebaba5b7df95c5a595eb381526020017f0e92ee39ba2b8a7a631b1aa13f608a50bef7f5d9529ac30404fa87bca40e950e815250815260200160405180604001604052807f2b169aaa861fc5de2eb1840fdd6787c9ea78425949f2a7a5374444ab05e1465581526020017f0bff81dd5517f2e24d69fe672049f062f609f9643d472110e690419fc22c3af68152508152508160600181905250600567ffffffffffffffff8111156115c2576115c161245a565b5b6040519080825280602002602001820160405280156115fb57816020015b6115e86120b9565b8152602001906001900390816115e05790505b50816080018190525060405180604001604052807f224b57cc865cff5d6ba1c1cc1dcf2b0889f2f4f04ae1f67b7523a2f12aa6f56c81526020017f2d2d84dfda8b595c9d34ea737e01bdd7ee1a4c57fb418854765701345ca0f6fb815250816080015160008151811061167157611670612ca6565b5b602002602001018190525060405180604001604052807f2b25ee258d391063bfd3828fb229f9315c92366eacb492cd4f745f6b20fbc4c381526020017f2fdc5265fce0cfa5bdbcf8177469c3c2538ed8a100ec892c1c404ef9e61196b181525081608001516001815181106116e9576116e8612ca6565b5b602002602001018190525060405180604001604052807f0d64892d3ba585ac69ed5b9b710dbfa97056930f8c54a499b68d03cdc934b9e581526020017f1e188c277177e80ac9b9e1ff788f8d20a4eb91483a719c77b9f846886e7ea366815250816080015160028151811061176157611760612ca6565b5b602002602001018190525060405180604001604052807f06c1f9f97a7137f3ea7062899afea785781b76115b0364c31de613536fde9e0381526020017f08554be31cea709f50ac7dc9cd2dcd778696e3adc2b77e079cf1696b53e64ef281525081608001516003815181106117d9576117d8612ca6565b5b602002602001018190525060405180604001604052807f15d0e1ccbae09422682904c28fc8760f8898d84ae5e5e4736a18ee35081d899c81526020017f0183af6ad6469b295865746902fa8525b7ff111b74c107781448c27fd9dfccdd815250816080015160048151811061185157611850612ca6565b5b602002602001018190525090565b6118676120b9565b61186f6120d3565b83600001518160006003811061188857611887612ca6565b5b6020020181815250508360200151816001600381106118aa576118a9612ca6565b5b60200201818152505082816002600381106118c8576118c7612ca6565b5b602002018181525050600060608360808460076107d05a03fa905080600081036118ee57fe5b50806118f957600080fd5b505092915050565b6119096120b9565b6119116120f5565b83600001518160006004811061192a57611929612ca6565b5b60200201818152505083602001518160016004811061194c5761194b612ca6565b5b60200201818152505082600001518160026004811061196e5761196d612ca6565b5b6020020181815250508260200151816003600481106119905761198f612ca6565b5b602002018181525050600060608360c08460066107d05a03fa905080600081036119b657fe5b50806119c157600080fd5b505092915050565b6119d16120b9565b60007f30644e72e131a029b85045b68181585d97816a916871ca8d3c208c16d87cfd47905060008360000151148015611a0e575060008360200151145b15611a32576040518060400160405280600081526020016000815250915050611a69565b604051806040016040528084600001518152602001828560200151611a579190612e9f565b83611a629190612ed0565b8152509150505b919050565b600080600467ffffffffffffffff811115611a8c57611a8b61245a565b5b604051908082528060200260200182016040528015611ac557816020015b611ab26120b9565b815260200190600190039081611aaa5790505b5090506000600467ffffffffffffffff811115611ae557611ae461245a565b5b604051908082528060200260200182016040528015611b1e57816020015b611b0b612117565b815260200190600190039081611b035790505b5090508a82600081518110611b3657611b35612ca6565b5b60200260200101819052508882600181518110611b5657611b55612ca6565b5b60200260200101819052508682600281518110611b7657611b75612ca6565b5b60200260200101819052508482600381518110611b9657611b95612ca6565b5b60200260200101819052508981600081518110611bb657611bb5612ca6565b5b60200260200101819052508781600181518110611bd657611bd5612ca6565b5b60200260200101819052508581600281518110611bf657611bf5612ca6565b5b60200260200101819052508381600381518110611c1657611c15612ca6565b5b6020026020010181905250611c2b8282611c3b565b9250505098975050505050505050565b60008151835114611c4b57600080fd5b6000835190506000600682611c609190612f04565b905060008167ffffffffffffffff811115611c7e57611c7d61245a565b5b604051908082528060200260200182016040528015611cac5781602001602082028036833780820191505090505b50905060005b83811015611f3157868181518110611ccd57611ccc612ca6565b5b602002602001015160000151826000600684611ce99190612f04565b611cf39190612e1a565b81518110611d0457611d03612ca6565b5b602002602001018181525050868181518110611d2357611d22612ca6565b5b602002602001015160200151826001600684611d3f9190612f04565b611d499190612e1a565b81518110611d5a57611d59612ca6565b5b602002602001018181525050858181518110611d7957611d78612ca6565b5b602002602001015160000151600160028110611d9857611d97612ca6565b5b6020020151826002600684611dad9190612f04565b611db79190612e1a565b81518110611dc857611dc7612ca6565b5b602002602001018181525050858181518110611de757611de6612ca6565b5b602002602001015160000151600060028110611e0657611e05612ca6565b5b6020020151826003600684611e1b9190612f04565b611e259190612e1a565b81518110611e3657611e35612ca6565b5b602002602001018181525050858181518110611e5557611e54612ca6565b5b602002602001015160200151600160028110611e7457611e73612ca6565b5b6020020151826004600684611e899190612f04565b611e939190612e1a565b81518110611ea457611ea3612ca6565b5b602002602001018181525050858181518110611ec357611ec2612ca6565b5b602002602001015160200151600060028110611ee257611ee1612ca6565b5b6020020151826005600684611ef79190612f04565b611f019190612e1a565b81518110611f1257611f11612ca6565b5b6020026020010181815250508080611f2990612d64565b915050611cb2565b50611f3a61213d565b6000602082602086026020860160086107d05a03fa90508060008103611f5c57fe5b5080611f6757600080fd5b600082600060018110611f7d57611f7c612ca6565b5b602002015114159550505050505092915050565b60405180610100016040528060008152602001606081526020016060815260200160608152602001606081526020016060815260200160008152602001600073ffffffffffffffffffffffffffffffffffffffff1681525090565b828054611ff890612d04565b90600052602060002090601f01602090048101928261201a5760008555612061565b82601f1061203357805160ff1916838001178555612061565b82800160010185558215612061579182015b82811115612060578251825591602001919060010190612045565b5b50905061206e919061215f565b5090565b6040518060a001604052806120856120b9565b8152602001612092612117565b815260200161209f612117565b81526020016120ac612117565b8152602001606081525090565b604051806040016040528060008152602001600081525090565b6040518060600160405280600390602082028036833780820191505090505090565b6040518060800160405280600490602082028036833780820191505090505090565b604051806040016040528061212a61217c565b815260200161213761217c565b81525090565b6040518060200160405280600190602082028036833780820191505090505090565b5b80821115612178576000816000905550600101612160565b5090565b6040518060400160405280600290602082028036833780820191505090505090565b600081519050919050565b600082825260208201905092915050565b6000819050602082019050919050565b6000819050919050565b6121dd816121ca565b82525050565b600081519050919050565b600082825260208201905092915050565b60005b8381101561221d578082015181840152602081019050612202565b8381111561222c576000848401525b50505050565b6000601f19601f8301169050919050565b600061224e826121e3565b61225881856121ee565b93506122688185602086016121ff565b61227181612232565b840191505092915050565b600073ffffffffffffffffffffffffffffffffffffffff82169050919050565b60006122a78261227c565b9050919050565b6122b78161229c565b82525050565b6000610100830160008301516122d660008601826121d4565b50602083015184820360208601526122ee8282612243565b915050604083015184820360408601526123088282612243565b915050606083015184820360608601526123228282612243565b9150506080830151848203608086015261233c8282612243565b91505060a083015184820360a08601526123568282612243565b91505060c083015161236b60c08601826121d4565b5060e083015161237e60e08601826122ae565b508091505092915050565b600061239583836122bd565b905092915050565b6000602082019050919050565b60006123b58261219e565b6123bf81856121a9565b9350836020820285016123d1856121ba565b8060005b8581101561240d57848403895281516123ee8582612389565b94506123f98361239d565b925060208a019950506001810190506123d5565b50829750879550505050505092915050565b6000602082019050818103600083015261243981846123aa565b905092915050565b6000604051905090565b600080fd5b600080fd5b600080fd5b7f4e487b7100000000000000000000000000000000000000000000000000000000600052604160045260246000fd5b61249282612232565b810181811067ffffffffffffffff821117156124b1576124b061245a565b5b80604052505050565b60006124c4612441565b90506124d08282612489565b919050565b6124de816121ca565b81146124e957600080fd5b50565b6000813590506124fb816124d5565b92915050565b60006040828403121561251757612516612455565b5b61252160406124ba565b90506000612531848285016124ec565b6000830152506020612545848285016124ec565b60208301525092915050565b600080fd5b600067ffffffffffffffff8211156125715761257061245a565b5b602082029050919050565b600080fd5b600061259461258f84612556565b6124ba565b905080602084028301858111156125ae576125ad61257c565b5b835b818110156125d757806125c388826124ec565b8452602084019350506020810190506125b0565b5050509392505050565b600082601f8301126125f6576125f5612551565b5b6002612603848285612581565b91505092915050565b60006080828403121561262257612621612455565b5b61262c60406124ba565b9050600061263c848285016125e1565b6000830152506040612650848285016125e1565b60208301525092915050565b6000610100828403121561267357612672612455565b5b61267d60606124ba565b9050600061268d84828501612501565b60008301525060406126a18482850161260c565b60208301525060c06126b584828501612501565b60408301525092915050565b600067ffffffffffffffff8211156126dc576126db61245a565b5b602082029050919050565b60006126fa6126f5846126c1565b6124ba565b905080602084028301858111156127145761271361257c565b5b835b8181101561273d578061272988826124ec565b845260208401935050602081019050612716565b5050509392505050565b600082601f83011261275c5761275b612551565b5b60046127698482856126e7565b91505092915050565b600080610180838503121561278a5761278961244b565b5b60006127988582860161265c565b9250506101006127aa85828601612747565b9150509250929050565b60008115159050919050565b6127c9816127b4565b82525050565b60006020820190506127e460008301846127c0565b92915050565b600060208284031215612800576127ff61244b565b5b600061280e848285016124ec565b91505092915050565b60006101008301600083015161283060008601826121d4565b50602083015184820360208601526128488282612243565b915050604083015184820360408601526128628282612243565b9150506060830151848203606086015261287c8282612243565b915050608083015184820360808601526128968282612243565b91505060a083015184820360a08601526128b08282612243565b91505060c08301516128c560c08601826121d4565b5060e08301516128d860e08601826122ae565b508091505092915050565b600060208201905081810360008301526128fd8184612817565b905092915050565b600080fd5b600067ffffffffffffffff8211156129255761292461245a565b5b61292e82612232565b9050602081019050919050565b82818337600083830152505050565b600061295d6129588461290a565b6124ba565b90508281526020810184848401111561297957612978612905565b5b61298484828561293b565b509392505050565b600082601f8301126129a1576129a0612551565b5b81356129b184826020860161294a565b91505092915050565b600080600080600060a086880312156129d6576129d561244b565b5b600086013567ffffffffffffffff8111156129f4576129f3612450565b5b612a008882890161298c565b955050602086013567ffffffffffffffff811115612a2157612a20612450565b5b612a2d8882890161298c565b945050604086013567ffffffffffffffff811115612a4e57612a4d612450565b5b612a5a8882890161298c565b935050606086013567ffffffffffffffff811115612a7b57612a7a612450565b5b612a878882890161298c565b925050608086013567ffffffffffffffff811115612aa857612aa7612450565b5b612ab48882890161298c565b9150509295509295909350565b60008060408385031215612ad857612ad761244b565b5b600083013567ffffffffffffffff811115612af657612af5612450565b5b612b028582860161298c565b925050602083013567ffffffffffffffff811115612b2357612b22612450565b5b612b2f8582860161298c565b9150509250929050565b612b42816121ca565b82525050565b600082825260208201905092915050565b6000612b64826121e3565b612b6e8185612b48565b9350612b7e8185602086016121ff565b612b8781612232565b840191505092915050565b612b9b8161229c565b82525050565b600061010082019050612bb7600083018b612b39565b8181036020830152612bc9818a612b59565b90508181036040830152612bdd8189612b59565b90508181036060830152612bf18188612b59565b90508181036080830152612c058187612b59565b905081810360a0830152612c198186612b59565b9050612c2860c0830185612b39565b612c3560e0830184612b92565b9998505050505050505050565b600060208284031215612c5857612c5761244b565b5b600082013567ffffffffffffffff811115612c7657612c75612450565b5b612c828482850161298c565b91505092915050565b6000602082019050612ca06000830184612b92565b92915050565b7f4e487b7100000000000000000000000000000000000000000000000000000000600052603260045260246000fd5b7f4e487b7100000000000000000000000000000000000000000000000000000000600052602260045260246000fd5b60006002820490506001821680612d1c57607f821691505b602082108103612d2f57612d2e612cd5565b5b50919050565b7f4e487b7100000000000000000000000000000000000000000000000000000000600052601160045260246000fd5b6000612d6f826121ca565b91507fffffffffffffffffffffffffffffffffffffffffffffffffffffffffffffffff8203612da157612da0612d35565b5b600182019050919050565b600081905092915050565b6000612dc2826121e3565b612dcc8185612dac565b9350612ddc8185602086016121ff565b80840191505092915050565b6000612df48284612db7565b915081905092915050565b6000602082019050612e146000830184612b39565b92915050565b6000612e25826121ca565b9150612e30836121ca565b9250827fffffffffffffffffffffffffffffffffffffffffffffffffffffffffffffffff03821115612e6557612e64612d35565b5b828201905092915050565b7f4e487b7100000000000000000000000000000000000000000000000000000000600052601260045260246000fd5b6000612eaa826121ca565b9150612eb5836121ca565b925082612ec557612ec4612e70565b5b828206905092915050565b6000612edb826121ca565b9150612ee6836121ca565b925082821015612ef957612ef8612d35565b5b828203905092915050565b6000612f0f826121ca565b9150612f1a836121ca565b9250817fffffffffffffffffffffffffffffffffffffffffffffffffffffffffffffffff0483118215151615612f5357612f52612d35565b5b82820290509291505056fea26469706673582212207468d3bd2c6a844dc21b8f9d949873f632b0e5aef21cd2c115fc540eeeaa9c9d64736f6c634300080d0033",
  "immutableReferences": {},
  "source": "pragma solidity ^0.8.0;\npragma experimental ABIEncoderV2;\n\nimport './verifier.sol';\n\ncontract NewsShareContract is Verifier {\n  event NewsAdded(uint newsIndex);\n\n  struct NewsModel {\n    uint index;\n    string ipfsAddress;\n    string newsHash;\n    string title;\n    string summary;\n    string contentType;\n    uint rating;\n    address owner;\n  }\n\n  NewsModel[] public newsAddresses;\n  mapping(string => address) public newsHashToOwner;\n\n  modifier notUsed(string memory _newsHash) {\n    require(newsHashToOwner[_newsHash] == address(0));\n    _;\n  }\n\n  modifier acceptableContentType(string memory _contentType) {\n    require(compareStrings(_contentType, \"text/plain\") || compareStrings(_contentType, \"video/mp4\") || compareStrings(_contentType, \"application/markdown\"));\n    _;\n  }\n\n  function compareStrings(string memory a, string memory b) public view returns (bool) {\n    return (keccak256(abi.encodePacked((a))) == keccak256(abi.encodePacked((b))));\n  }\n\n  function addNews(string memory _ipfsAddress, string memory _newsHash, string memory _title, string memory _summary, string memory _contentType) public notUsed(_newsHash) acceptableContentType(_contentType) returns (bool r) {\n    NewsModel memory news = NewsModel(newsAddresses.length, _ipfsAddress, _newsHash, _title, _summary, _contentType, 0, msg.sender);\n    newsHashToOwner[_newsHash] = msg.sender;\n    newsAddresses.push(news);\n    emit NewsAdded(newsAddresses.length);\n    return true;\n  }\n\n  function getNewsByIndex(uint index) external view returns (NewsModel memory) {\n    return newsAddresses[index];\n  }\n\n  function getNews() external view returns (NewsModel[] memory) {\n    NewsModel[] memory result = new NewsModel[](newsAddresses.length);\n    for (uint i = 0; i < newsAddresses.length; i++) {\n        result[i] = newsAddresses[i];\n    }\n    return result;\n  }\n}\n",
  "sourcePath": "/mnt/5cc8a27c-3158-4268-868b-2fecc619b826/Projects/Webstorm/decentralized-freelance-news/truffle/contracts/news-share-contract.sol",
  "compiler": {
    "name": "solc",
    "version": "0.8.13+commit.abaa5c0e.Emscripten.clang"
  },
  "schemaVersion": "3.4.7",
  "updatedAt": "2022-05-19T19:53:43.620Z",
  "networkType": "ethereum",
  "devdoc": {
    "kind": "dev",
    "methods": {},
    "version": 1
  },
  "userdoc": {
    "kind": "user",
    "methods": {},
    "version": 1
  }
}