{
  "contractName": "NewsShareContract",
  "abi": [
    {
      "anonymous": false,
      "inputs": [
        {
          "indexed": false,
          "internalType": "uint256",
          "name": "newsIndex",
          "type": "uint256"
        }
      ],
      "name": "NewsAdded",
      "type": "event"
    },
    {
      "anonymous": false,
      "inputs": [
        {
          "indexed": false,
          "internalType": "uint256",
          "name": "newsIndex",
          "type": "uint256"
        }
      ],
      "name": "NewsUpdated",
      "type": "event"
    },
    {
      "inputs": [
        {
          "internalType": "uint256",
          "name": "",
          "type": "uint256"
        }
      ],
      "name": "newsAddresses",
      "outputs": [
        {
          "internalType": "uint256",
          "name": "index",
          "type": "uint256"
        },
        {
          "internalType": "string",
          "name": "ipfsAddress",
          "type": "string"
        },
        {
          "internalType": "string",
          "name": "title",
          "type": "string"
        },
        {
          "internalType": "string",
          "name": "summary",
          "type": "string"
        },
        {
          "internalType": "string",
          "name": "contentType",
          "type": "string"
        },
        {
          "internalType": "uint256",
          "name": "rating",
          "type": "uint256"
        },
        {
          "internalType": "address payable",
          "name": "owner",
          "type": "address"
        }
      ],
      "stateMutability": "view",
      "type": "function",
      "constant": true
    },
    {
      "inputs": [
        {
          "components": [
            {
              "components": [
                {
                  "internalType": "uint256",
                  "name": "X",
                  "type": "uint256"
                },
                {
                  "internalType": "uint256",
                  "name": "Y",
                  "type": "uint256"
                }
              ],
              "internalType": "struct Pairing.G1Point",
              "name": "a",
              "type": "tuple"
            },
            {
              "components": [
                {
                  "internalType": "uint256[2]",
                  "name": "X",
                  "type": "uint256[2]"
                },
                {
                  "internalType": "uint256[2]",
                  "name": "Y",
                  "type": "uint256[2]"
                }
              ],
              "internalType": "struct Pairing.G2Point",
              "name": "b",
              "type": "tuple"
            },
            {
              "components": [
                {
                  "internalType": "uint256",
                  "name": "X",
                  "type": "uint256"
                },
                {
                  "internalType": "uint256",
                  "name": "Y",
                  "type": "uint256"
                }
              ],
              "internalType": "struct Pairing.G1Point",
              "name": "c",
              "type": "tuple"
            }
          ],
          "internalType": "struct Verifier.Proof",
          "name": "proof",
          "type": "tuple"
        },
        {
          "internalType": "uint256[4]",
          "name": "input",
          "type": "uint256[4]"
        }
      ],
      "name": "verifyTx",
      "outputs": [
        {
          "internalType": "bool",
          "name": "r",
          "type": "bool"
        }
      ],
      "stateMutability": "view",
      "type": "function",
      "constant": true
    },
    {
      "inputs": [
        {
          "internalType": "string",
          "name": "a",
          "type": "string"
        },
        {
          "internalType": "string",
          "name": "b",
          "type": "string"
        }
      ],
      "name": "compareStrings",
      "outputs": [
        {
          "internalType": "bool",
          "name": "",
          "type": "bool"
        }
      ],
      "stateMutability": "view",
      "type": "function",
      "constant": true
    },
    {
      "inputs": [
        {
          "internalType": "string",
          "name": "_ipfsAddress",
          "type": "string"
        },
        {
          "internalType": "string",
          "name": "_title",
          "type": "string"
        },
        {
          "internalType": "string",
          "name": "_summary",
          "type": "string"
        },
        {
          "internalType": "string",
          "name": "_contentType",
          "type": "string"
        }
      ],
      "name": "addNews",
      "outputs": [],
      "stateMutability": "nonpayable",
      "type": "function"
    },
    {
      "inputs": [
        {
          "internalType": "uint256",
          "name": "index",
          "type": "uint256"
        }
      ],
      "name": "increaseRating",
      "outputs": [],
      "stateMutability": "payable",
      "type": "function",
      "payable": true
    },
    {
      "inputs": [
        {
          "internalType": "uint256",
          "name": "index",
          "type": "uint256"
        }
      ],
      "name": "getNewsByIndex",
      "outputs": [
        {
          "components": [
            {
              "internalType": "uint256",
              "name": "index",
              "type": "uint256"
            },
            {
              "internalType": "string",
              "name": "ipfsAddress",
              "type": "string"
            },
            {
              "internalType": "string",
              "name": "title",
              "type": "string"
            },
            {
              "internalType": "string",
              "name": "summary",
              "type": "string"
            },
            {
              "internalType": "string",
              "name": "contentType",
              "type": "string"
            },
            {
              "internalType": "uint256",
              "name": "rating",
              "type": "uint256"
            },
            {
              "internalType": "address payable",
              "name": "owner",
              "type": "address"
            }
          ],
          "internalType": "struct NewsShareContract.NewsModel",
          "name": "",
          "type": "tuple"
        }
      ],
      "stateMutability": "view",
      "type": "function",
      "constant": true
    },
    {
      "inputs": [],
      "name": "getNews",
      "outputs": [
        {
          "components": [
            {
              "internalType": "uint256",
              "name": "index",
              "type": "uint256"
            },
            {
              "internalType": "string",
              "name": "ipfsAddress",
              "type": "string"
            },
            {
              "internalType": "string",
              "name": "title",
              "type": "string"
            },
            {
              "internalType": "string",
              "name": "summary",
              "type": "string"
            },
            {
              "internalType": "string",
              "name": "contentType",
              "type": "string"
            },
            {
              "internalType": "uint256",
              "name": "rating",
              "type": "uint256"
            },
            {
              "internalType": "address payable",
              "name": "owner",
              "type": "address"
            }
          ],
          "internalType": "struct NewsShareContract.NewsModel[]",
          "name": "",
          "type": "tuple[]"
        }
      ],
      "stateMutability": "view",
      "type": "function",
      "constant": true
    }
  ],
  "bytecode": "0x608060405234801561001057600080fd5b50612da2806100206000396000f3fe6080604052600436106100705760003560e01c80637a46c2931161004e5780637a46c293146100f95780638131464814610136578063bed34bba1461015f578063c475ad2a1461019c57610070565b8063111d8171146100755780633a4211d1146100a0578063799afa76146100bc575b600080fd5b34801561008157600080fd5b5061008a6101df565b6040516100979190612240565b60405180910390f35b6100ba60048036038101906100b591906122a2565b610565565b005b3480156100c857600080fd5b506100e360048036038101906100de91906125c0565b6106cb565b6040516100f0919061261d565b60405180910390f35b34801561010557600080fd5b50610120600480360381019061011b91906122a2565b610798565b60405161012d91906126e9565b60405180910390f35b34801561014257600080fd5b5061015d600480360381019061015891906127c0565b610a86565b005b34801561016b57600080fd5b5061018660048036038101906101819190612897565b610cb5565b604051610193919061261d565b60405180910390f35b3480156101a857600080fd5b506101c360048036038101906101be91906122a2565b610d0e565b6040516101d69796959493929190612977565b60405180910390f35b60606000808054905067ffffffffffffffff811115610201576102006122d4565b5b60405190808252806020026020018201604052801561023a57816020015b610227611dd5565b81526020019060019003908161021f5790505b50905060005b60008054905081101561055d576000818154811061026157610260612a02565b5b90600052602060002090600702016040518060e00160405290816000820154815260200160018201805461029490612a60565b80601f01602080910402602001604051908101604052809291908181526020018280546102c090612a60565b801561030d5780601f106102e25761010080835404028352916020019161030d565b820191906000526020600020905b8154815290600101906020018083116102f057829003601f168201915b5050505050815260200160028201805461032690612a60565b80601f016020809104026020016040519081016040528092919081815260200182805461035290612a60565b801561039f5780601f106103745761010080835404028352916020019161039f565b820191906000526020600020905b81548152906001019060200180831161038257829003601f168201915b505050505081526020016003820180546103b890612a60565b80601f01602080910402602001604051908101604052809291908181526020018280546103e490612a60565b80156104315780601f1061040657610100808354040283529160200191610431565b820191906000526020600020905b81548152906001019060200180831161041457829003601f168201915b5050505050815260200160048201805461044a90612a60565b80601f016020809104026020016040519081016040528092919081815260200182805461047690612a60565b80156104c35780601f10610498576101008083540402835291602001916104c3565b820191906000526020600020905b8154815290600101906020018083116104a657829003601f168201915b50505050508152602001600582015481526020016006820160009054906101000a900473ffffffffffffffffffffffffffffffffffffffff1673ffffffffffffffffffffffffffffffffffffffff1673ffffffffffffffffffffffffffffffffffffffff168152505082828151811061053f5761053e612a02565b5b6020026020010181905250808061055590612ac0565b915050610240565b508091505090565b600080828154811061057a57610579612a02565b5b906000526020600020906007020160060160009054906101000a900473ffffffffffffffffffffffffffffffffffffffff1673ffffffffffffffffffffffffffffffffffffffff16346040516105cf90612b39565b60006040518083038185875af1925050503d806000811461060c576040519150601f19603f3d011682016040523d82523d6000602084013e610611565b606091505b5050905080610655576040517f08c379a000000000000000000000000000000000000000000000000000000000815260040161064c90612b9a565b60405180910390fd5b6000828154811061066957610668612a02565b5b9060005260206000209060070201600501600081548092919061068b90612ac0565b91905055507f4c982046b2510b3a02f8134c4f3a9ce22e481ab837850b92bef9b5c9c5d5ba81826040516106bf9190612bba565b60405180910390a15050565b600080600467ffffffffffffffff8111156106e9576106e86122d4565b5b6040519080825280602002602001820160405280156107175781602001602082028036833780820191505090505b50905060005b60048110156107705783816004811061073957610738612a02565b5b602002015182828151811061075157610750612a02565b5b602002602001018181525050808061076890612ac0565b91505061071d565b50600061077d8286610fa0565b0361078c576001915050610792565b60009150505b92915050565b6107a0611dd5565b600082815481106107b4576107b3612a02565b5b90600052602060002090600702016040518060e0016040529081600082015481526020016001820180546107e790612a60565b80601f016020809104026020016040519081016040528092919081815260200182805461081390612a60565b80156108605780601f1061083557610100808354040283529160200191610860565b820191906000526020600020905b81548152906001019060200180831161084357829003601f168201915b5050505050815260200160028201805461087990612a60565b80601f01602080910402602001604051908101604052809291908181526020018280546108a590612a60565b80156108f25780601f106108c7576101008083540402835291602001916108f2565b820191906000526020600020905b8154815290600101906020018083116108d557829003601f168201915b5050505050815260200160038201805461090b90612a60565b80601f016020809104026020016040519081016040528092919081815260200182805461093790612a60565b80156109845780601f1061095957610100808354040283529160200191610984565b820191906000526020600020905b81548152906001019060200180831161096757829003601f168201915b5050505050815260200160048201805461099d90612a60565b80601f01602080910402602001604051908101604052809291908181526020018280546109c990612a60565b8015610a165780601f106109eb57610100808354040283529160200191610a16565b820191906000526020600020905b8154815290600101906020018083116109f957829003601f168201915b50505050508152602001600582015481526020016006820160009054906101000a900473ffffffffffffffffffffffffffffffffffffffff1673ffffffffffffffffffffffffffffffffffffffff1673ffffffffffffffffffffffffffffffffffffffff16815250509050919050565b80610ac6816040518060400160405280600a81526020017f746578742f706c61696e00000000000000000000000000000000000000000000815250610cb5565b80610b0c5750610b0b816040518060400160405280601481526020017f6170706c69636174696f6e2f6d61726b646f776e000000000000000000000000815250610cb5565b5b610b1557600080fd5b60006040518060e001604052806000805490508152602001878152602001868152602001858152602001848152602001600081526020013373ffffffffffffffffffffffffffffffffffffffff1681525090506000819080600181540180825580915050600190039060005260206000209060070201600090919091909150600082015181600001556020820151816001019080519060200190610bba929190611e28565b506040820151816002019080519060200190610bd7929190611e28565b506060820151816003019080519060200190610bf4929190611e28565b506080820151816004019080519060200190610c11929190611e28565b5060a0820151816005015560c08201518160060160006101000a81548173ffffffffffffffffffffffffffffffffffffffff021916908373ffffffffffffffffffffffffffffffffffffffff16021790555050507f29e6c2bf8e42e4b6c854cc321caed58ec2c8c14374895264d198471e8d329fa76001600080549050610c989190612bd5565b604051610ca59190612bba565b60405180910390a1505050505050565b600081604051602001610cc89190612c45565b6040516020818303038152906040528051906020012083604051602001610cef9190612c45565b6040516020818303038152906040528051906020012014905092915050565b60008181548110610d1e57600080fd5b9060005260206000209060070201600091509050806000015490806001018054610d4790612a60565b80601f0160208091040260200160405190810160405280929190818152602001828054610d7390612a60565b8015610dc05780601f10610d9557610100808354040283529160200191610dc0565b820191906000526020600020905b815481529060010190602001808311610da357829003601f168201915b505050505090806002018054610dd590612a60565b80601f0160208091040260200160405190810160405280929190818152602001828054610e0190612a60565b8015610e4e5780601f10610e2357610100808354040283529160200191610e4e565b820191906000526020600020905b815481529060010190602001808311610e3157829003601f168201915b505050505090806003018054610e6390612a60565b80601f0160208091040260200160405190810160405280929190818152602001828054610e8f90612a60565b8015610edc5780601f10610eb157610100808354040283529160200191610edc565b820191906000526020600020905b815481529060010190602001808311610ebf57829003601f168201915b505050505090806004018054610ef190612a60565b80601f0160208091040260200160405190810160405280929190818152602001828054610f1d90612a60565b8015610f6a5780601f10610f3f57610100808354040283529160200191610f6a565b820191906000526020600020905b815481529060010190602001808311610f4d57829003601f168201915b5050505050908060050154908060060160009054906101000a900473ffffffffffffffffffffffffffffffffffffffff16905087565b6000807f30644e72e131a029b85045b68181585d2833e84879b9709143e1f593f000000190506000610fd0611137565b905080608001515160018651610fe69190612c5c565b14610ff057600080fd5b60006040518060400160405280600081526020016000815250905060005b86518110156110a9578387828151811061102b5761102a612a02565b5b60200260200101511061103d57600080fd5b6110948261108f85608001516001856110569190612c5c565b8151811061106757611066612a02565b5b60200260200101518a858151811061108257611081612a02565b5b60200260200101516116a3565b611745565b915080806110a190612ac0565b91505061100e565b506110d38183608001516000815181106110c6576110c5612a02565b5b6020026020010151611745565b9050611119856000015186602001516110eb8461180d565b85604001516110fd8a6040015161180d565b876060015161110f896000015161180d565b89602001516118b2565b6111295760019350505050611131565b600093505050505b92915050565b61113f611eae565b60405180604001604052807f2993d03b6867bf2534e59db205a7e62780d7f78826481f5c163299f4af1aaf6a81526020017f038dc9e1e7a2c8efdc541bb14d9f1df7801230f4940c00ae8a5a75c117b42a388152508160000181905250604051806040016040528060405180604001604052807f19b6c7f7d8b126646edd1ca33bf5828f431cd649dde8846cb1e000b3718c46dd81526020017f0725c6af267d4eb526417efa8d3c7d33989d8c399eb2736ecddce1817a82c3fb815250815260200160405180604001604052807f2dabe79525ccb6e741bc5b3809fb5f68acfa1d7184665b0e2607f7c0a192756e81526020017f27954161dc0071944e31fe8705876a928a8b1456dc78970e4ea42c2d25931ddf8152508152508160200181905250604051806040016040528060405180604001604052807f156f7d65b9abf81d21c30cad13616ee2f419bea291926ec88d2511c79ddd695d81526020017f11efc7b4b4c4aad654dca36f1d059da0824e1a728f4577dd45a6434332444b24815250815260200160405180604001604052807f276fbff2bd8328733b271a4fc60cb66c74baac136598369d3c7857f967dd9a8a81526020017f0609fc2bb314edc8c0ed90319a486f844aa48d72b61d53915b2bfae486289f1d8152508152508160400181905250604051806040016040528060405180604001604052807f1e54630d5e2b35a19de0c9496d390c4ed24d3325efdebaba5b7df95c5a595eb381526020017f0e92ee39ba2b8a7a631b1aa13f608a50bef7f5d9529ac30404fa87bca40e950e815250815260200160405180604001604052807f2b169aaa861fc5de2eb1840fdd6787c9ea78425949f2a7a5374444ab05e1465581526020017f0bff81dd5517f2e24d69fe672049f062f609f9643d472110e690419fc22c3af68152508152508160600181905250600567ffffffffffffffff811115611406576114056122d4565b5b60405190808252806020026020018201604052801561143f57816020015b61142c611ef5565b8152602001906001900390816114245790505b50816080018190525060405180604001604052807f224b57cc865cff5d6ba1c1cc1dcf2b0889f2f4f04ae1f67b7523a2f12aa6f56c81526020017f2d2d84dfda8b595c9d34ea737e01bdd7ee1a4c57fb418854765701345ca0f6fb81525081608001516000815181106114b5576114b4612a02565b5b602002602001018190525060405180604001604052807f2b25ee258d391063bfd3828fb229f9315c92366eacb492cd4f745f6b20fbc4c381526020017f2fdc5265fce0cfa5bdbcf8177469c3c2538ed8a100ec892c1c404ef9e61196b1815250816080015160018151811061152d5761152c612a02565b5b602002602001018190525060405180604001604052807f0d64892d3ba585ac69ed5b9b710dbfa97056930f8c54a499b68d03cdc934b9e581526020017f1e188c277177e80ac9b9e1ff788f8d20a4eb91483a719c77b9f846886e7ea36681525081608001516002815181106115a5576115a4612a02565b5b602002602001018190525060405180604001604052807f06c1f9f97a7137f3ea7062899afea785781b76115b0364c31de613536fde9e0381526020017f08554be31cea709f50ac7dc9cd2dcd778696e3adc2b77e079cf1696b53e64ef2815250816080015160038151811061161d5761161c612a02565b5b602002602001018190525060405180604001604052807f15d0e1ccbae09422682904c28fc8760f8898d84ae5e5e4736a18ee35081d899c81526020017f0183af6ad6469b295865746902fa8525b7ff111b74c107781448c27fd9dfccdd815250816080015160048151811061169557611694612a02565b5b602002602001018190525090565b6116ab611ef5565b6116b3611f0f565b8360000151816000600381106116cc576116cb612a02565b5b6020020181815250508360200151816001600381106116ee576116ed612a02565b5b602002018181525050828160026003811061170c5761170b612a02565b5b602002018181525050600060608360808460076107d05a03fa9050806000810361173257fe5b508061173d57600080fd5b505092915050565b61174d611ef5565b611755611f31565b83600001518160006004811061176e5761176d612a02565b5b6020020181815250508360200151816001600481106117905761178f612a02565b5b6020020181815250508260000151816002600481106117b2576117b1612a02565b5b6020020181815250508260200151816003600481106117d4576117d3612a02565b5b602002018181525050600060608360c08460066107d05a03fa905080600081036117fa57fe5b508061180557600080fd5b505092915050565b611815611ef5565b60007f30644e72e131a029b85045b68181585d97816a916871ca8d3c208c16d87cfd47905060008360000151148015611852575060008360200151145b156118765760405180604001604052806000815260200160008152509150506118ad565b60405180604001604052808460000151815260200182856020015161189b9190612ce1565b836118a69190612bd5565b8152509150505b919050565b600080600467ffffffffffffffff8111156118d0576118cf6122d4565b5b60405190808252806020026020018201604052801561190957816020015b6118f6611ef5565b8152602001906001900390816118ee5790505b5090506000600467ffffffffffffffff811115611929576119286122d4565b5b60405190808252806020026020018201604052801561196257816020015b61194f611f53565b8152602001906001900390816119475790505b5090508a8260008151811061197a57611979612a02565b5b6020026020010181905250888260018151811061199a57611999612a02565b5b602002602001018190525086826002815181106119ba576119b9612a02565b5b602002602001018190525084826003815181106119da576119d9612a02565b5b602002602001018190525089816000815181106119fa576119f9612a02565b5b60200260200101819052508781600181518110611a1a57611a19612a02565b5b60200260200101819052508581600281518110611a3a57611a39612a02565b5b60200260200101819052508381600381518110611a5a57611a59612a02565b5b6020026020010181905250611a6f8282611a7f565b9250505098975050505050505050565b60008151835114611a8f57600080fd5b6000835190506000600682611aa49190612d12565b905060008167ffffffffffffffff811115611ac257611ac16122d4565b5b604051908082528060200260200182016040528015611af05781602001602082028036833780820191505090505b50905060005b83811015611d7557868181518110611b1157611b10612a02565b5b602002602001015160000151826000600684611b2d9190612d12565b611b379190612c5c565b81518110611b4857611b47612a02565b5b602002602001018181525050868181518110611b6757611b66612a02565b5b602002602001015160200151826001600684611b839190612d12565b611b8d9190612c5c565b81518110611b9e57611b9d612a02565b5b602002602001018181525050858181518110611bbd57611bbc612a02565b5b602002602001015160000151600160028110611bdc57611bdb612a02565b5b6020020151826002600684611bf19190612d12565b611bfb9190612c5c565b81518110611c0c57611c0b612a02565b5b602002602001018181525050858181518110611c2b57611c2a612a02565b5b602002602001015160000151600060028110611c4a57611c49612a02565b5b6020020151826003600684611c5f9190612d12565b611c699190612c5c565b81518110611c7a57611c79612a02565b5b602002602001018181525050858181518110611c9957611c98612a02565b5b602002602001015160200151600160028110611cb857611cb7612a02565b5b6020020151826004600684611ccd9190612d12565b611cd79190612c5c565b81518110611ce857611ce7612a02565b5b602002602001018181525050858181518110611d0757611d06612a02565b5b602002602001015160200151600060028110611d2657611d25612a02565b5b6020020151826005600684611d3b9190612d12565b611d459190612c5c565b81518110611d5657611d55612a02565b5b6020026020010181815250508080611d6d90612ac0565b915050611af6565b50611d7e611f79565b6000602082602086026020860160086107d05a03fa90508060008103611da057fe5b5080611dab57600080fd5b600082600060018110611dc157611dc0612a02565b5b602002015114159550505050505092915050565b6040518060e00160405280600081526020016060815260200160608152602001606081526020016060815260200160008152602001600073ffffffffffffffffffffffffffffffffffffffff1681525090565b828054611e3490612a60565b90600052602060002090601f016020900481019282611e565760008555611e9d565b82601f10611e6f57805160ff1916838001178555611e9d565b82800160010185558215611e9d579182015b82811115611e9c578251825591602001919060010190611e81565b5b509050611eaa9190611f9b565b5090565b6040518060a00160405280611ec1611ef5565b8152602001611ece611f53565b8152602001611edb611f53565b8152602001611ee8611f53565b8152602001606081525090565b604051806040016040528060008152602001600081525090565b6040518060600160405280600390602082028036833780820191505090505090565b6040518060800160405280600490602082028036833780820191505090505090565b6040518060400160405280611f66611fb8565b8152602001611f73611fb8565b81525090565b6040518060200160405280600190602082028036833780820191505090505090565b5b80821115611fb4576000816000905550600101611f9c565b5090565b6040518060400160405280600290602082028036833780820191505090505090565b600081519050919050565b600082825260208201905092915050565b6000819050602082019050919050565b6000819050919050565b61201981612006565b82525050565b600081519050919050565b600082825260208201905092915050565b60005b8381101561205957808201518184015260208101905061203e565b83811115612068576000848401525b50505050565b6000601f19601f8301169050919050565b600061208a8261201f565b612094818561202a565b93506120a481856020860161203b565b6120ad8161206e565b840191505092915050565b600073ffffffffffffffffffffffffffffffffffffffff82169050919050565b60006120e3826120b8565b9050919050565b6120f3816120d8565b82525050565b600060e0830160008301516121116000860182612010565b5060208301518482036020860152612129828261207f565b91505060408301518482036040860152612143828261207f565b9150506060830151848203606086015261215d828261207f565b91505060808301518482036080860152612177828261207f565b91505060a083015161218c60a0860182612010565b5060c083015161219f60c08601826120ea565b508091505092915050565b60006121b683836120f9565b905092915050565b6000602082019050919050565b60006121d682611fda565b6121e08185611fe5565b9350836020820285016121f285611ff6565b8060005b8581101561222e578484038952815161220f85826121aa565b945061221a836121be565b925060208a019950506001810190506121f6565b50829750879550505050505092915050565b6000602082019050818103600083015261225a81846121cb565b905092915050565b6000604051905090565b600080fd5b600080fd5b61227f81612006565b811461228a57600080fd5b50565b60008135905061229c81612276565b92915050565b6000602082840312156122b8576122b761226c565b5b60006122c68482850161228d565b91505092915050565b600080fd5b7f4e487b7100000000000000000000000000000000000000000000000000000000600052604160045260246000fd5b61230c8261206e565b810181811067ffffffffffffffff8211171561232b5761232a6122d4565b5b80604052505050565b600061233e612262565b905061234a8282612303565b919050565b600060408284031215612365576123646122cf565b5b61236f6040612334565b9050600061237f8482850161228d565b60008301525060206123938482850161228d565b60208301525092915050565b600080fd5b600067ffffffffffffffff8211156123bf576123be6122d4565b5b602082029050919050565b600080fd5b60006123e26123dd846123a4565b612334565b905080602084028301858111156123fc576123fb6123ca565b5b835b818110156124255780612411888261228d565b8452602084019350506020810190506123fe565b5050509392505050565b600082601f8301126124445761244361239f565b5b60026124518482856123cf565b91505092915050565b6000608082840312156124705761246f6122cf565b5b61247a6040612334565b9050600061248a8482850161242f565b600083015250604061249e8482850161242f565b60208301525092915050565b600061010082840312156124c1576124c06122cf565b5b6124cb6060612334565b905060006124db8482850161234f565b60008301525060406124ef8482850161245a565b60208301525060c06125038482850161234f565b60408301525092915050565b600067ffffffffffffffff82111561252a576125296122d4565b5b602082029050919050565b60006125486125438461250f565b612334565b90508060208402830185811115612562576125616123ca565b5b835b8181101561258b5780612577888261228d565b845260208401935050602081019050612564565b5050509392505050565b600082601f8301126125aa576125a961239f565b5b60046125b7848285612535565b91505092915050565b60008061018083850312156125d8576125d761226c565b5b60006125e6858286016124aa565b9250506101006125f885828601612595565b9150509250929050565b60008115159050919050565b61261781612602565b82525050565b6000602082019050612632600083018461260e565b92915050565b600060e0830160008301516126506000860182612010565b5060208301518482036020860152612668828261207f565b91505060408301518482036040860152612682828261207f565b9150506060830151848203606086015261269c828261207f565b915050608083015184820360808601526126b6828261207f565b91505060a08301516126cb60a0860182612010565b5060c08301516126de60c08601826120ea565b508091505092915050565b600060208201905081810360008301526127038184612638565b905092915050565b600080fd5b600067ffffffffffffffff82111561272b5761272a6122d4565b5b6127348261206e565b9050602081019050919050565b82818337600083830152505050565b600061276361275e84612710565b612334565b90508281526020810184848401111561277f5761277e61270b565b5b61278a848285612741565b509392505050565b600082601f8301126127a7576127a661239f565b5b81356127b7848260208601612750565b91505092915050565b600080600080608085870312156127da576127d961226c565b5b600085013567ffffffffffffffff8111156127f8576127f7612271565b5b61280487828801612792565b945050602085013567ffffffffffffffff81111561282557612824612271565b5b61283187828801612792565b935050604085013567ffffffffffffffff81111561285257612851612271565b5b61285e87828801612792565b925050606085013567ffffffffffffffff81111561287f5761287e612271565b5b61288b87828801612792565b91505092959194509250565b600080604083850312156128ae576128ad61226c565b5b600083013567ffffffffffffffff8111156128cc576128cb612271565b5b6128d885828601612792565b925050602083013567ffffffffffffffff8111156128f9576128f8612271565b5b61290585828601612792565b9150509250929050565b61291881612006565b82525050565b600082825260208201905092915050565b600061293a8261201f565b612944818561291e565b935061295481856020860161203b565b61295d8161206e565b840191505092915050565b612971816120d8565b82525050565b600060e08201905061298c600083018a61290f565b818103602083015261299e818961292f565b905081810360408301526129b2818861292f565b905081810360608301526129c6818761292f565b905081810360808301526129da818661292f565b90506129e960a083018561290f565b6129f660c0830184612968565b98975050505050505050565b7f4e487b7100000000000000000000000000000000000000000000000000000000600052603260045260246000fd5b7f4e487b7100000000000000000000000000000000000000000000000000000000600052602260045260246000fd5b60006002820490506001821680612a7857607f821691505b602082108103612a8b57612a8a612a31565b5b50919050565b7f4e487b7100000000000000000000000000000000000000000000000000000000600052601160045260246000fd5b6000612acb82612006565b91507fffffffffffffffffffffffffffffffffffffffffffffffffffffffffffffffff8203612afd57612afc612a91565b5b600182019050919050565b600081905092915050565b50565b6000612b23600083612b08565b9150612b2e82612b13565b600082019050919050565b6000612b4482612b16565b9150819050919050565b7f4661696c656420746f2073656e64204574686572000000000000000000000000600082015250565b6000612b8460148361291e565b9150612b8f82612b4e565b602082019050919050565b60006020820190508181036000830152612bb381612b77565b9050919050565b6000602082019050612bcf600083018461290f565b92915050565b6000612be082612006565b9150612beb83612006565b925082821015612bfe57612bfd612a91565b5b828203905092915050565b600081905092915050565b6000612c1f8261201f565b612c298185612c09565b9350612c3981856020860161203b565b80840191505092915050565b6000612c518284612c14565b915081905092915050565b6000612c6782612006565b9150612c7283612006565b9250827fffffffffffffffffffffffffffffffffffffffffffffffffffffffffffffffff03821115612ca757612ca6612a91565b5b828201905092915050565b7f4e487b7100000000000000000000000000000000000000000000000000000000600052601260045260246000fd5b6000612cec82612006565b9150612cf783612006565b925082612d0757612d06612cb2565b5b828206905092915050565b6000612d1d82612006565b9150612d2883612006565b9250817fffffffffffffffffffffffffffffffffffffffffffffffffffffffffffffffff0483118215151615612d6157612d60612a91565b5b82820290509291505056fea2646970667358221220b1e3deb4bdfae7a192312acac3822df0cdfd36f8b4fabc9a2bc022147c2423cc64736f6c634300080d0033",
  "immutableReferences": {},
  "source": "pragma solidity ^0.8.0;\npragma experimental ABIEncoderV2;\n\nimport './verifier.sol';\n\ncontract NewsShareContract is Verifier {\n  event NewsAdded(uint newsIndex);\n  event NewsUpdated(uint newsIndex);\n\n  struct NewsModel {\n    uint index;\n    string ipfsAddress;\n    string title;\n    string summary;\n    string contentType;\n    uint rating;\n    address payable owner;\n  }\n\n  NewsModel[] public newsAddresses;\n\n  modifier acceptableContentType(string memory _contentType) {\n    require(compareStrings(_contentType, \"text/plain\") || compareStrings(_contentType, \"application/markdown\"));\n    _;\n  }\n\n  function compareStrings(string memory a, string memory b) public view returns (bool) {\n    return (keccak256(abi.encodePacked((a))) == keccak256(abi.encodePacked((b))));\n  }\n\n  function addNews(string memory _ipfsAddress, string memory _title, string memory _summary, string memory _contentType) public acceptableContentType(_contentType) {\n    NewsModel memory news = NewsModel(newsAddresses.length, _ipfsAddress, _title, _summary, _contentType, 0, payable(msg.sender));\n    newsAddresses.push(news);\n    emit NewsAdded(newsAddresses.length - 1);\n  }\n\n  function increaseRating(uint index) public payable {\n      (bool success, ) = newsAddresses[index].owner.call{value: msg.value}(\"\");\n      require(success, \"Failed to send Ether\");\n      newsAddresses[index].rating++;\n      emit NewsUpdated(index);\n  }\n\n  function getNewsByIndex(uint index) external view returns (NewsModel memory) {\n    return newsAddresses[index];\n  }\n\n  function getNews() external view returns (NewsModel[] memory) {\n    NewsModel[] memory result = new NewsModel[](newsAddresses.length);\n    for (uint i = 0; i < newsAddresses.length; i++) {\n        result[i] = newsAddresses[i];\n    }\n    return result;\n  }\n}\n",
  "sourcePath": "/mnt/5cc8a27c-3158-4268-868b-2fecc619b826/Projects/Webstorm/decentralized-freelance-news/truffle/contracts/news-share-contract.sol",
  "compiler": {
    "name": "solc",
    "version": "0.8.13+commit.abaa5c0e.Emscripten.clang"
  },
  "schemaVersion": "3.4.11",
  "updatedAt": "2022-12-07T19:45:40.123Z",
  "networkType": "ethereum",
  "devdoc": {
    "kind": "dev",
    "methods": {},
    "version": 1
  },
  "userdoc": {
    "kind": "user",
    "methods": {},
    "version": 1
  }
}