{
  "contractName": "NewsShareContract",
  "abi": [
    {
      "anonymous": false,
      "inputs": [
        {
          "indexed": false,
          "internalType": "uint256",
          "name": "newsIndex",
          "type": "uint256"
        }
      ],
      "name": "NewsAdded",
      "type": "event"
    },
    {
      "anonymous": false,
      "inputs": [
        {
          "indexed": false,
          "internalType": "uint256",
          "name": "newsIndex",
          "type": "uint256"
        }
      ],
      "name": "NewsUpdated",
      "type": "event"
    },
    {
      "inputs": [
        {
          "internalType": "uint256",
          "name": "",
          "type": "uint256"
        }
      ],
      "name": "newsAddresses",
      "outputs": [
        {
          "internalType": "uint256",
          "name": "index",
          "type": "uint256"
        },
        {
          "internalType": "string",
          "name": "ipfsAddress",
          "type": "string"
        },
        {
          "internalType": "string",
          "name": "title",
          "type": "string"
        },
        {
          "internalType": "string",
          "name": "summary",
          "type": "string"
        },
        {
          "internalType": "string",
          "name": "contentType",
          "type": "string"
        },
        {
          "internalType": "uint256",
          "name": "rating",
          "type": "uint256"
        },
        {
          "internalType": "address payable",
          "name": "owner",
          "type": "address"
        }
      ],
      "stateMutability": "view",
      "type": "function",
      "constant": true
    },
    {
      "inputs": [
        {
          "components": [
            {
              "components": [
                {
                  "internalType": "uint256",
                  "name": "X",
                  "type": "uint256"
                },
                {
                  "internalType": "uint256",
                  "name": "Y",
                  "type": "uint256"
                }
              ],
              "internalType": "struct Pairing.G1Point",
              "name": "a",
              "type": "tuple"
            },
            {
              "components": [
                {
                  "internalType": "uint256[2]",
                  "name": "X",
                  "type": "uint256[2]"
                },
                {
                  "internalType": "uint256[2]",
                  "name": "Y",
                  "type": "uint256[2]"
                }
              ],
              "internalType": "struct Pairing.G2Point",
              "name": "b",
              "type": "tuple"
            },
            {
              "components": [
                {
                  "internalType": "uint256",
                  "name": "X",
                  "type": "uint256"
                },
                {
                  "internalType": "uint256",
                  "name": "Y",
                  "type": "uint256"
                }
              ],
              "internalType": "struct Pairing.G1Point",
              "name": "c",
              "type": "tuple"
            }
          ],
          "internalType": "struct Verifier.Proof",
          "name": "proof",
          "type": "tuple"
        },
        {
          "internalType": "uint256[4]",
          "name": "input",
          "type": "uint256[4]"
        }
      ],
      "name": "verifyTx",
      "outputs": [
        {
          "internalType": "bool",
          "name": "r",
          "type": "bool"
        }
      ],
      "stateMutability": "view",
      "type": "function",
      "constant": true
    },
    {
      "inputs": [
        {
          "internalType": "string",
          "name": "a",
          "type": "string"
        },
        {
          "internalType": "string",
          "name": "b",
          "type": "string"
        }
      ],
      "name": "compareStrings",
      "outputs": [
        {
          "internalType": "bool",
          "name": "",
          "type": "bool"
        }
      ],
      "stateMutability": "view",
      "type": "function",
      "constant": true
    },
    {
      "inputs": [
        {
          "internalType": "string",
          "name": "_ipfsAddress",
          "type": "string"
        },
        {
          "internalType": "string",
          "name": "_title",
          "type": "string"
        },
        {
          "internalType": "string",
          "name": "_summary",
          "type": "string"
        },
        {
          "internalType": "string",
          "name": "_contentType",
          "type": "string"
        },
        {
          "components": [
            {
              "components": [
                {
                  "internalType": "uint256",
                  "name": "X",
                  "type": "uint256"
                },
                {
                  "internalType": "uint256",
                  "name": "Y",
                  "type": "uint256"
                }
              ],
              "internalType": "struct Pairing.G1Point",
              "name": "a",
              "type": "tuple"
            },
            {
              "components": [
                {
                  "internalType": "uint256[2]",
                  "name": "X",
                  "type": "uint256[2]"
                },
                {
                  "internalType": "uint256[2]",
                  "name": "Y",
                  "type": "uint256[2]"
                }
              ],
              "internalType": "struct Pairing.G2Point",
              "name": "b",
              "type": "tuple"
            },
            {
              "components": [
                {
                  "internalType": "uint256",
                  "name": "X",
                  "type": "uint256"
                },
                {
                  "internalType": "uint256",
                  "name": "Y",
                  "type": "uint256"
                }
              ],
              "internalType": "struct Pairing.G1Point",
              "name": "c",
              "type": "tuple"
            }
          ],
          "internalType": "struct Verifier.Proof",
          "name": "proof",
          "type": "tuple"
        },
        {
          "internalType": "uint256[4]",
          "name": "input",
          "type": "uint256[4]"
        }
      ],
      "name": "addNews",
      "outputs": [],
      "stateMutability": "nonpayable",
      "type": "function"
    },
    {
      "inputs": [
        {
          "internalType": "uint256",
          "name": "index",
          "type": "uint256"
        },
        {
          "components": [
            {
              "components": [
                {
                  "internalType": "uint256",
                  "name": "X",
                  "type": "uint256"
                },
                {
                  "internalType": "uint256",
                  "name": "Y",
                  "type": "uint256"
                }
              ],
              "internalType": "struct Pairing.G1Point",
              "name": "a",
              "type": "tuple"
            },
            {
              "components": [
                {
                  "internalType": "uint256[2]",
                  "name": "X",
                  "type": "uint256[2]"
                },
                {
                  "internalType": "uint256[2]",
                  "name": "Y",
                  "type": "uint256[2]"
                }
              ],
              "internalType": "struct Pairing.G2Point",
              "name": "b",
              "type": "tuple"
            },
            {
              "components": [
                {
                  "internalType": "uint256",
                  "name": "X",
                  "type": "uint256"
                },
                {
                  "internalType": "uint256",
                  "name": "Y",
                  "type": "uint256"
                }
              ],
              "internalType": "struct Pairing.G1Point",
              "name": "c",
              "type": "tuple"
            }
          ],
          "internalType": "struct Verifier.Proof",
          "name": "proof",
          "type": "tuple"
        },
        {
          "internalType": "uint256[4]",
          "name": "input",
          "type": "uint256[4]"
        }
      ],
      "name": "increaseRating",
      "outputs": [],
      "stateMutability": "payable",
      "type": "function",
      "payable": true
    },
    {
      "inputs": [
        {
          "internalType": "uint256",
          "name": "index",
          "type": "uint256"
        }
      ],
      "name": "getNewsByIndex",
      "outputs": [
        {
          "components": [
            {
              "internalType": "uint256",
              "name": "index",
              "type": "uint256"
            },
            {
              "internalType": "string",
              "name": "ipfsAddress",
              "type": "string"
            },
            {
              "internalType": "string",
              "name": "title",
              "type": "string"
            },
            {
              "internalType": "string",
              "name": "summary",
              "type": "string"
            },
            {
              "internalType": "string",
              "name": "contentType",
              "type": "string"
            },
            {
              "internalType": "uint256",
              "name": "rating",
              "type": "uint256"
            },
            {
              "internalType": "address payable",
              "name": "owner",
              "type": "address"
            }
          ],
          "internalType": "struct NewsShareContract.NewsModel",
          "name": "",
          "type": "tuple"
        }
      ],
      "stateMutability": "view",
      "type": "function",
      "constant": true
    },
    {
      "inputs": [],
      "name": "getNews",
      "outputs": [
        {
          "components": [
            {
              "internalType": "uint256",
              "name": "index",
              "type": "uint256"
            },
            {
              "internalType": "string",
              "name": "ipfsAddress",
              "type": "string"
            },
            {
              "internalType": "string",
              "name": "title",
              "type": "string"
            },
            {
              "internalType": "string",
              "name": "summary",
              "type": "string"
            },
            {
              "internalType": "string",
              "name": "contentType",
              "type": "string"
            },
            {
              "internalType": "uint256",
              "name": "rating",
              "type": "uint256"
            },
            {
              "internalType": "address payable",
              "name": "owner",
              "type": "address"
            }
          ],
          "internalType": "struct NewsShareContract.NewsModel[]",
          "name": "",
          "type": "tuple[]"
        }
      ],
      "stateMutability": "view",
      "type": "function",
      "constant": true
    }
  ],
  "bytecode": "0x608060405234801561001057600080fd5b50612e51806100206000396000f3fe6080604052600436106100705760003560e01c80637a46c2931161004e5780637a46c293146100f9578063a336295714610136578063bed34bba1461015f578063c475ad2a1461019c57610070565b8063111d8171146100755780631ffb0acc146100a0578063799afa76146100bc575b600080fd5b34801561008157600080fd5b5061008a6101df565b6040516100979190612272565b60405180910390f35b6100ba60048036038101906100b591906125c5565b610565565b005b3480156100c857600080fd5b506100e360048036038101906100de919061261a565b6106e4565b6040516100f09190612677565b60405180910390f35b34801561010557600080fd5b50610120600480360381019061011b9190612692565b6107b1565b60405161012d9190612770565b60405180910390f35b34801561014257600080fd5b5061015d60048036038101906101589190612847565b610a9f565b005b34801561016b57600080fd5b5061018660048036038101906101819190612946565b610ce7565b6040516101939190612677565b60405180910390f35b3480156101a857600080fd5b506101c360048036038101906101be9190612692565b610d40565b6040516101d69796959493929190612a26565b60405180910390f35b60606000808054905067ffffffffffffffff811115610201576102006122d9565b5b60405190808252806020026020018201604052801561023a57816020015b610227611e07565b81526020019060019003908161021f5790505b50905060005b60008054905081101561055d576000818154811061026157610260612ab1565b5b90600052602060002090600702016040518060e00160405290816000820154815260200160018201805461029490612b0f565b80601f01602080910402602001604051908101604052809291908181526020018280546102c090612b0f565b801561030d5780601f106102e25761010080835404028352916020019161030d565b820191906000526020600020905b8154815290600101906020018083116102f057829003601f168201915b5050505050815260200160028201805461032690612b0f565b80601f016020809104026020016040519081016040528092919081815260200182805461035290612b0f565b801561039f5780601f106103745761010080835404028352916020019161039f565b820191906000526020600020905b81548152906001019060200180831161038257829003601f168201915b505050505081526020016003820180546103b890612b0f565b80601f01602080910402602001604051908101604052809291908181526020018280546103e490612b0f565b80156104315780601f1061040657610100808354040283529160200191610431565b820191906000526020600020905b81548152906001019060200180831161041457829003601f168201915b5050505050815260200160048201805461044a90612b0f565b80601f016020809104026020016040519081016040528092919081815260200182805461047690612b0f565b80156104c35780601f10610498576101008083540402835291602001916104c3565b820191906000526020600020905b8154815290600101906020018083116104a657829003601f168201915b50505050508152602001600582015481526020016006820160009054906101000a900473ffffffffffffffffffffffffffffffffffffffff1673ffffffffffffffffffffffffffffffffffffffff1673ffffffffffffffffffffffffffffffffffffffff168152505082828151811061053f5761053e612ab1565b5b6020026020010181905250808061055590612b6f565b915050610240565b508091505090565b818161057182826106e4565b61057a57600080fd5b600080868154811061058f5761058e612ab1565b5b906000526020600020906007020160060160009054906101000a900473ffffffffffffffffffffffffffffffffffffffff1673ffffffffffffffffffffffffffffffffffffffff16346040516105e490612be8565b60006040518083038185875af1925050503d8060008114610621576040519150601f19603f3d011682016040523d82523d6000602084013e610626565b606091505b505090508061066a576040517f08c379a000000000000000000000000000000000000000000000000000000000815260040161066190612c49565b60405180910390fd5b6000868154811061067e5761067d612ab1565b5b906000526020600020906007020160050160008154809291906106a090612b6f565b91905055507f4c982046b2510b3a02f8134c4f3a9ce22e481ab837850b92bef9b5c9c5d5ba81866040516106d49190612c69565b60405180910390a1505050505050565b600080600467ffffffffffffffff811115610702576107016122d9565b5b6040519080825280602002602001820160405280156107305781602001602082028036833780820191505090505b50905060005b60048110156107895783816004811061075257610751612ab1565b5b602002015182828151811061076a57610769612ab1565b5b602002602001018181525050808061078190612b6f565b915050610736565b5060006107968286610fd2565b036107a55760019150506107ab565b60009150505b92915050565b6107b9611e07565b600082815481106107cd576107cc612ab1565b5b90600052602060002090600702016040518060e00160405290816000820154815260200160018201805461080090612b0f565b80601f016020809104026020016040519081016040528092919081815260200182805461082c90612b0f565b80156108795780601f1061084e57610100808354040283529160200191610879565b820191906000526020600020905b81548152906001019060200180831161085c57829003601f168201915b5050505050815260200160028201805461089290612b0f565b80601f01602080910402602001604051908101604052809291908181526020018280546108be90612b0f565b801561090b5780601f106108e05761010080835404028352916020019161090b565b820191906000526020600020905b8154815290600101906020018083116108ee57829003601f168201915b5050505050815260200160038201805461092490612b0f565b80601f016020809104026020016040519081016040528092919081815260200182805461095090612b0f565b801561099d5780601f106109725761010080835404028352916020019161099d565b820191906000526020600020905b81548152906001019060200180831161098057829003601f168201915b505050505081526020016004820180546109b690612b0f565b80601f01602080910402602001604051908101604052809291908181526020018280546109e290612b0f565b8015610a2f5780601f10610a0457610100808354040283529160200191610a2f565b820191906000526020600020905b815481529060010190602001808311610a1257829003601f168201915b50505050508152602001600582015481526020016006820160009054906101000a900473ffffffffffffffffffffffffffffffffffffffff1673ffffffffffffffffffffffffffffffffffffffff1673ffffffffffffffffffffffffffffffffffffffff16815250509050919050565b82610adf816040518060400160405280600a81526020017f746578742f706c61696e00000000000000000000000000000000000000000000815250610ce7565b80610b255750610b24816040518060400160405280601481526020017f6170706c69636174696f6e2f6d61726b646f776e000000000000000000000000815250610ce7565b5b610b2e57600080fd5b8282610b3a82826106e4565b610b4357600080fd5b60006040518060e0016040528060008054905081526020018b81526020018a8152602001898152602001888152602001600081526020013373ffffffffffffffffffffffffffffffffffffffff1681525090506000819080600181540180825580915050600190039060005260206000209060070201600090919091909150600082015181600001556020820151816001019080519060200190610be8929190611e5a565b506040820151816002019080519060200190610c05929190611e5a565b506060820151816003019080519060200190610c22929190611e5a565b506080820151816004019080519060200190610c3f929190611e5a565b5060a0820151816005015560c08201518160060160006101000a81548173ffffffffffffffffffffffffffffffffffffffff021916908373ffffffffffffffffffffffffffffffffffffffff16021790555050507f29e6c2bf8e42e4b6c854cc321caed58ec2c8c14374895264d198471e8d329fa76001600080549050610cc69190612c84565b604051610cd39190612c69565b60405180910390a150505050505050505050565b600081604051602001610cfa9190612cf4565b6040516020818303038152906040528051906020012083604051602001610d219190612cf4565b6040516020818303038152906040528051906020012014905092915050565b60008181548110610d5057600080fd5b9060005260206000209060070201600091509050806000015490806001018054610d7990612b0f565b80601f0160208091040260200160405190810160405280929190818152602001828054610da590612b0f565b8015610df25780601f10610dc757610100808354040283529160200191610df2565b820191906000526020600020905b815481529060010190602001808311610dd557829003601f168201915b505050505090806002018054610e0790612b0f565b80601f0160208091040260200160405190810160405280929190818152602001828054610e3390612b0f565b8015610e805780601f10610e5557610100808354040283529160200191610e80565b820191906000526020600020905b815481529060010190602001808311610e6357829003601f168201915b505050505090806003018054610e9590612b0f565b80601f0160208091040260200160405190810160405280929190818152602001828054610ec190612b0f565b8015610f0e5780601f10610ee357610100808354040283529160200191610f0e565b820191906000526020600020905b815481529060010190602001808311610ef157829003601f168201915b505050505090806004018054610f2390612b0f565b80601f0160208091040260200160405190810160405280929190818152602001828054610f4f90612b0f565b8015610f9c5780601f10610f7157610100808354040283529160200191610f9c565b820191906000526020600020905b815481529060010190602001808311610f7f57829003601f168201915b5050505050908060050154908060060160009054906101000a900473ffffffffffffffffffffffffffffffffffffffff16905087565b6000807f30644e72e131a029b85045b68181585d2833e84879b9709143e1f593f000000190506000611002611169565b9050806080015151600186516110189190612d0b565b1461102257600080fd5b60006040518060400160405280600081526020016000815250905060005b86518110156110db578387828151811061105d5761105c612ab1565b5b60200260200101511061106f57600080fd5b6110c6826110c185608001516001856110889190612d0b565b8151811061109957611098612ab1565b5b60200260200101518a85815181106110b4576110b3612ab1565b5b60200260200101516116d5565b611777565b915080806110d390612b6f565b915050611040565b506111058183608001516000815181106110f8576110f7612ab1565b5b6020026020010151611777565b905061114b8560000151866020015161111d8461183f565b856040015161112f8a6040015161183f565b8760600151611141896000015161183f565b89602001516118e4565b61115b5760019350505050611163565b600093505050505b92915050565b611171611ee0565b60405180604001604052807f2993d03b6867bf2534e59db205a7e62780d7f78826481f5c163299f4af1aaf6a81526020017f038dc9e1e7a2c8efdc541bb14d9f1df7801230f4940c00ae8a5a75c117b42a388152508160000181905250604051806040016040528060405180604001604052807f19b6c7f7d8b126646edd1ca33bf5828f431cd649dde8846cb1e000b3718c46dd81526020017f0725c6af267d4eb526417efa8d3c7d33989d8c399eb2736ecddce1817a82c3fb815250815260200160405180604001604052807f2dabe79525ccb6e741bc5b3809fb5f68acfa1d7184665b0e2607f7c0a192756e81526020017f27954161dc0071944e31fe8705876a928a8b1456dc78970e4ea42c2d25931ddf8152508152508160200181905250604051806040016040528060405180604001604052807f156f7d65b9abf81d21c30cad13616ee2f419bea291926ec88d2511c79ddd695d81526020017f11efc7b4b4c4aad654dca36f1d059da0824e1a728f4577dd45a6434332444b24815250815260200160405180604001604052807f276fbff2bd8328733b271a4fc60cb66c74baac136598369d3c7857f967dd9a8a81526020017f0609fc2bb314edc8c0ed90319a486f844aa48d72b61d53915b2bfae486289f1d8152508152508160400181905250604051806040016040528060405180604001604052807f1e54630d5e2b35a19de0c9496d390c4ed24d3325efdebaba5b7df95c5a595eb381526020017f0e92ee39ba2b8a7a631b1aa13f608a50bef7f5d9529ac30404fa87bca40e950e815250815260200160405180604001604052807f2b169aaa861fc5de2eb1840fdd6787c9ea78425949f2a7a5374444ab05e1465581526020017f0bff81dd5517f2e24d69fe672049f062f609f9643d472110e690419fc22c3af68152508152508160600181905250600567ffffffffffffffff811115611438576114376122d9565b5b60405190808252806020026020018201604052801561147157816020015b61145e611f27565b8152602001906001900390816114565790505b50816080018190525060405180604001604052807f224b57cc865cff5d6ba1c1cc1dcf2b0889f2f4f04ae1f67b7523a2f12aa6f56c81526020017f2d2d84dfda8b595c9d34ea737e01bdd7ee1a4c57fb418854765701345ca0f6fb81525081608001516000815181106114e7576114e6612ab1565b5b602002602001018190525060405180604001604052807f2b25ee258d391063bfd3828fb229f9315c92366eacb492cd4f745f6b20fbc4c381526020017f2fdc5265fce0cfa5bdbcf8177469c3c2538ed8a100ec892c1c404ef9e61196b1815250816080015160018151811061155f5761155e612ab1565b5b602002602001018190525060405180604001604052807f0d64892d3ba585ac69ed5b9b710dbfa97056930f8c54a499b68d03cdc934b9e581526020017f1e188c277177e80ac9b9e1ff788f8d20a4eb91483a719c77b9f846886e7ea36681525081608001516002815181106115d7576115d6612ab1565b5b602002602001018190525060405180604001604052807f06c1f9f97a7137f3ea7062899afea785781b76115b0364c31de613536fde9e0381526020017f08554be31cea709f50ac7dc9cd2dcd778696e3adc2b77e079cf1696b53e64ef2815250816080015160038151811061164f5761164e612ab1565b5b602002602001018190525060405180604001604052807f15d0e1ccbae09422682904c28fc8760f8898d84ae5e5e4736a18ee35081d899c81526020017f0183af6ad6469b295865746902fa8525b7ff111b74c107781448c27fd9dfccdd81525081608001516004815181106116c7576116c6612ab1565b5b602002602001018190525090565b6116dd611f27565b6116e5611f41565b8360000151816000600381106116fe576116fd612ab1565b5b6020020181815250508360200151816001600381106117205761171f612ab1565b5b602002018181525050828160026003811061173e5761173d612ab1565b5b602002018181525050600060608360808460076107d05a03fa9050806000810361176457fe5b508061176f57600080fd5b505092915050565b61177f611f27565b611787611f63565b8360000151816000600481106117a05761179f612ab1565b5b6020020181815250508360200151816001600481106117c2576117c1612ab1565b5b6020020181815250508260000151816002600481106117e4576117e3612ab1565b5b60200201818152505082602001518160036004811061180657611805612ab1565b5b602002018181525050600060608360c08460066107d05a03fa9050806000810361182c57fe5b508061183757600080fd5b505092915050565b611847611f27565b60007f30644e72e131a029b85045b68181585d97816a916871ca8d3c208c16d87cfd47905060008360000151148015611884575060008360200151145b156118a85760405180604001604052806000815260200160008152509150506118df565b6040518060400160405280846000015181526020018285602001516118cd9190612d90565b836118d89190612c84565b8152509150505b919050565b600080600467ffffffffffffffff811115611902576119016122d9565b5b60405190808252806020026020018201604052801561193b57816020015b611928611f27565b8152602001906001900390816119205790505b5090506000600467ffffffffffffffff81111561195b5761195a6122d9565b5b60405190808252806020026020018201604052801561199457816020015b611981611f85565b8152602001906001900390816119795790505b5090508a826000815181106119ac576119ab612ab1565b5b602002602001018190525088826001815181106119cc576119cb612ab1565b5b602002602001018190525086826002815181106119ec576119eb612ab1565b5b60200260200101819052508482600381518110611a0c57611a0b612ab1565b5b60200260200101819052508981600081518110611a2c57611a2b612ab1565b5b60200260200101819052508781600181518110611a4c57611a4b612ab1565b5b60200260200101819052508581600281518110611a6c57611a6b612ab1565b5b60200260200101819052508381600381518110611a8c57611a8b612ab1565b5b6020026020010181905250611aa18282611ab1565b9250505098975050505050505050565b60008151835114611ac157600080fd5b6000835190506000600682611ad69190612dc1565b905060008167ffffffffffffffff811115611af457611af36122d9565b5b604051908082528060200260200182016040528015611b225781602001602082028036833780820191505090505b50905060005b83811015611da757868181518110611b4357611b42612ab1565b5b602002602001015160000151826000600684611b5f9190612dc1565b611b699190612d0b565b81518110611b7a57611b79612ab1565b5b602002602001018181525050868181518110611b9957611b98612ab1565b5b602002602001015160200151826001600684611bb59190612dc1565b611bbf9190612d0b565b81518110611bd057611bcf612ab1565b5b602002602001018181525050858181518110611bef57611bee612ab1565b5b602002602001015160000151600160028110611c0e57611c0d612ab1565b5b6020020151826002600684611c239190612dc1565b611c2d9190612d0b565b81518110611c3e57611c3d612ab1565b5b602002602001018181525050858181518110611c5d57611c5c612ab1565b5b602002602001015160000151600060028110611c7c57611c7b612ab1565b5b6020020151826003600684611c919190612dc1565b611c9b9190612d0b565b81518110611cac57611cab612ab1565b5b602002602001018181525050858181518110611ccb57611cca612ab1565b5b602002602001015160200151600160028110611cea57611ce9612ab1565b5b6020020151826004600684611cff9190612dc1565b611d099190612d0b565b81518110611d1a57611d19612ab1565b5b602002602001018181525050858181518110611d3957611d38612ab1565b5b602002602001015160200151600060028110611d5857611d57612ab1565b5b6020020151826005600684611d6d9190612dc1565b611d779190612d0b565b81518110611d8857611d87612ab1565b5b6020026020010181815250508080611d9f90612b6f565b915050611b28565b50611db0611fab565b6000602082602086026020860160086107d05a03fa90508060008103611dd257fe5b5080611ddd57600080fd5b600082600060018110611df357611df2612ab1565b5b602002015114159550505050505092915050565b6040518060e00160405280600081526020016060815260200160608152602001606081526020016060815260200160008152602001600073ffffffffffffffffffffffffffffffffffffffff1681525090565b828054611e6690612b0f565b90600052602060002090601f016020900481019282611e885760008555611ecf565b82601f10611ea157805160ff1916838001178555611ecf565b82800160010185558215611ecf579182015b82811115611ece578251825591602001919060010190611eb3565b5b509050611edc9190611fcd565b5090565b6040518060a00160405280611ef3611f27565b8152602001611f00611f85565b8152602001611f0d611f85565b8152602001611f1a611f85565b8152602001606081525090565b604051806040016040528060008152602001600081525090565b6040518060600160405280600390602082028036833780820191505090505090565b6040518060800160405280600490602082028036833780820191505090505090565b6040518060400160405280611f98611fea565b8152602001611fa5611fea565b81525090565b6040518060200160405280600190602082028036833780820191505090505090565b5b80821115611fe6576000816000905550600101611fce565b5090565b6040518060400160405280600290602082028036833780820191505090505090565b600081519050919050565b600082825260208201905092915050565b6000819050602082019050919050565b6000819050919050565b61204b81612038565b82525050565b600081519050919050565b600082825260208201905092915050565b60005b8381101561208b578082015181840152602081019050612070565b8381111561209a576000848401525b50505050565b6000601f19601f8301169050919050565b60006120bc82612051565b6120c6818561205c565b93506120d681856020860161206d565b6120df816120a0565b840191505092915050565b600073ffffffffffffffffffffffffffffffffffffffff82169050919050565b6000612115826120ea565b9050919050565b6121258161210a565b82525050565b600060e0830160008301516121436000860182612042565b506020830151848203602086015261215b82826120b1565b9150506040830151848203604086015261217582826120b1565b9150506060830151848203606086015261218f82826120b1565b915050608083015184820360808601526121a982826120b1565b91505060a08301516121be60a0860182612042565b5060c08301516121d160c086018261211c565b508091505092915050565b60006121e8838361212b565b905092915050565b6000602082019050919050565b60006122088261200c565b6122128185612017565b93508360208202850161222485612028565b8060005b85811015612260578484038952815161224185826121dc565b945061224c836121f0565b925060208a01995050600181019050612228565b50829750879550505050505092915050565b6000602082019050818103600083015261228c81846121fd565b905092915050565b6000604051905090565b600080fd5b600080fd5b6122b181612038565b81146122bc57600080fd5b50565b6000813590506122ce816122a8565b92915050565b600080fd5b7f4e487b7100000000000000000000000000000000000000000000000000000000600052604160045260246000fd5b612311826120a0565b810181811067ffffffffffffffff821117156123305761232f6122d9565b5b80604052505050565b6000612343612294565b905061234f8282612308565b919050565b60006040828403121561236a576123696122d4565b5b6123746040612339565b90506000612384848285016122bf565b6000830152506020612398848285016122bf565b60208301525092915050565b600080fd5b600067ffffffffffffffff8211156123c4576123c36122d9565b5b602082029050919050565b600080fd5b60006123e76123e2846123a9565b612339565b90508060208402830185811115612401576124006123cf565b5b835b8181101561242a578061241688826122bf565b845260208401935050602081019050612403565b5050509392505050565b600082601f830112612449576124486123a4565b5b60026124568482856123d4565b91505092915050565b600060808284031215612475576124746122d4565b5b61247f6040612339565b9050600061248f84828501612434565b60008301525060406124a384828501612434565b60208301525092915050565b600061010082840312156124c6576124c56122d4565b5b6124d06060612339565b905060006124e084828501612354565b60008301525060406124f48482850161245f565b60208301525060c061250884828501612354565b60408301525092915050565b600067ffffffffffffffff82111561252f5761252e6122d9565b5b602082029050919050565b600061254d61254884612514565b612339565b90508060208402830185811115612567576125666123cf565b5b835b81811015612590578061257c88826122bf565b845260208401935050602081019050612569565b5050509392505050565b600082601f8301126125af576125ae6123a4565b5b60046125bc84828561253a565b91505092915050565b60008060006101a084860312156125df576125de61229e565b5b60006125ed868287016122bf565b93505060206125fe868287016124af565b9250506101206126108682870161259a565b9150509250925092565b60008061018083850312156126325761263161229e565b5b6000612640858286016124af565b9250506101006126528582860161259a565b9150509250929050565b60008115159050919050565b6126718161265c565b82525050565b600060208201905061268c6000830184612668565b92915050565b6000602082840312156126a8576126a761229e565b5b60006126b6848285016122bf565b91505092915050565b600060e0830160008301516126d76000860182612042565b50602083015184820360208601526126ef82826120b1565b9150506040830151848203604086015261270982826120b1565b9150506060830151848203606086015261272382826120b1565b9150506080830151848203608086015261273d82826120b1565b91505060a083015161275260a0860182612042565b5060c083015161276560c086018261211c565b508091505092915050565b6000602082019050818103600083015261278a81846126bf565b905092915050565b600080fd5b600067ffffffffffffffff8211156127b2576127b16122d9565b5b6127bb826120a0565b9050602081019050919050565b82818337600083830152505050565b60006127ea6127e584612797565b612339565b90508281526020810184848401111561280657612805612792565b5b6128118482856127c8565b509392505050565b600082601f83011261282e5761282d6123a4565b5b813561283e8482602086016127d7565b91505092915050565b60008060008060008061020087890312156128655761286461229e565b5b600087013567ffffffffffffffff811115612883576128826122a3565b5b61288f89828a01612819565b965050602087013567ffffffffffffffff8111156128b0576128af6122a3565b5b6128bc89828a01612819565b955050604087013567ffffffffffffffff8111156128dd576128dc6122a3565b5b6128e989828a01612819565b945050606087013567ffffffffffffffff81111561290a576129096122a3565b5b61291689828a01612819565b935050608061292789828a016124af565b92505061018061293989828a0161259a565b9150509295509295509295565b6000806040838503121561295d5761295c61229e565b5b600083013567ffffffffffffffff81111561297b5761297a6122a3565b5b61298785828601612819565b925050602083013567ffffffffffffffff8111156129a8576129a76122a3565b5b6129b485828601612819565b9150509250929050565b6129c781612038565b82525050565b600082825260208201905092915050565b60006129e982612051565b6129f381856129cd565b9350612a0381856020860161206d565b612a0c816120a0565b840191505092915050565b612a208161210a565b82525050565b600060e082019050612a3b600083018a6129be565b8181036020830152612a4d81896129de565b90508181036040830152612a6181886129de565b90508181036060830152612a7581876129de565b90508181036080830152612a8981866129de565b9050612a9860a08301856129be565b612aa560c0830184612a17565b98975050505050505050565b7f4e487b7100000000000000000000000000000000000000000000000000000000600052603260045260246000fd5b7f4e487b7100000000000000000000000000000000000000000000000000000000600052602260045260246000fd5b60006002820490506001821680612b2757607f821691505b602082108103612b3a57612b39612ae0565b5b50919050565b7f4e487b7100000000000000000000000000000000000000000000000000000000600052601160045260246000fd5b6000612b7a82612038565b91507fffffffffffffffffffffffffffffffffffffffffffffffffffffffffffffffff8203612bac57612bab612b40565b5b600182019050919050565b600081905092915050565b50565b6000612bd2600083612bb7565b9150612bdd82612bc2565b600082019050919050565b6000612bf382612bc5565b9150819050919050565b7f4661696c656420746f2073656e64204574686572000000000000000000000000600082015250565b6000612c336014836129cd565b9150612c3e82612bfd565b602082019050919050565b60006020820190508181036000830152612c6281612c26565b9050919050565b6000602082019050612c7e60008301846129be565b92915050565b6000612c8f82612038565b9150612c9a83612038565b925082821015612cad57612cac612b40565b5b828203905092915050565b600081905092915050565b6000612cce82612051565b612cd88185612cb8565b9350612ce881856020860161206d565b80840191505092915050565b6000612d008284612cc3565b915081905092915050565b6000612d1682612038565b9150612d2183612038565b9250827fffffffffffffffffffffffffffffffffffffffffffffffffffffffffffffffff03821115612d5657612d55612b40565b5b828201905092915050565b7f4e487b7100000000000000000000000000000000000000000000000000000000600052601260045260246000fd5b6000612d9b82612038565b9150612da683612038565b925082612db657612db5612d61565b5b828206905092915050565b6000612dcc82612038565b9150612dd783612038565b9250817fffffffffffffffffffffffffffffffffffffffffffffffffffffffffffffffff0483118215151615612e1057612e0f612b40565b5b82820290509291505056fea264697066735822122065da46a7e04b9a731f35bca6c2a63ca5d3a69384748180b8a7e59076f61cc1b164736f6c634300080d0033",
  "immutableReferences": {},
  "source": "pragma solidity ^0.8.0;\npragma experimental ABIEncoderV2;\n\nimport './verifier.sol';\n\ncontract NewsShareContract is Verifier {\n  event NewsAdded(uint newsIndex);\n  event NewsUpdated(uint newsIndex);\n\n  struct NewsModel {\n    uint index;\n    string ipfsAddress;\n    string title;\n    string summary;\n    string contentType;\n    uint rating;\n    address payable owner;\n  }\n\n  NewsModel[] public newsAddresses;\n\n  modifier requiredIdentityProof(Proof memory _proof, uint[4] memory _input) {\n    require(verifyTx(_proof, _input));\n    _;\n  }\n\n  modifier acceptableContentType(string memory _contentType) {\n    require(compareStrings(_contentType, \"text/plain\") || compareStrings(_contentType, \"application/markdown\"));\n    _;\n  }\n\n  function compareStrings(string memory a, string memory b) public view returns (bool) {\n    return (keccak256(abi.encodePacked((a))) == keccak256(abi.encodePacked((b))));\n  }\n\n  function addNews(string memory _ipfsAddress, string memory _title, string memory _summary, string memory _contentType, Proof memory proof, uint[4] memory input) public acceptableContentType(_contentType) requiredIdentityProof(proof, input) {\n    NewsModel memory news = NewsModel(newsAddresses.length, _ipfsAddress, _title, _summary, _contentType, 0, payable(msg.sender));\n    newsAddresses.push(news);\n    emit NewsAdded(newsAddresses.length - 1);\n  }\n\n  function increaseRating(uint index, Proof memory proof, uint[4] memory input) public payable  requiredIdentityProof(proof, input) {\n      (bool success, ) = newsAddresses[index].owner.call{value: msg.value}(\"\");\n      require(success, \"Failed to send Ether\");\n      newsAddresses[index].rating++;\n      emit NewsUpdated(index);\n  }\n\n  function getNewsByIndex(uint index) external view returns (NewsModel memory) {\n    return newsAddresses[index];\n  }\n\n  function getNews() external view returns (NewsModel[] memory) {\n    NewsModel[] memory result = new NewsModel[](newsAddresses.length);\n    for (uint i = 0; i < newsAddresses.length; i++) {\n        result[i] = newsAddresses[i];\n    }\n    return result;\n  }\n}\n",
  "sourcePath": "/mnt/5cc8a27c-3158-4268-868b-2fecc619b826/Projects/Webstorm/decentralized-freelance-news/truffle/contracts/news-share-contract.sol",
  "compiler": {
    "name": "solc",
    "version": "0.8.13+commit.abaa5c0e.Emscripten.clang"
  },
  "schemaVersion": "3.4.11",
  "updatedAt": "2022-12-07T20:35:27.301Z",
  "networkType": "ethereum",
  "devdoc": {
    "kind": "dev",
    "methods": {},
    "version": 1
  },
  "userdoc": {
    "kind": "user",
    "methods": {},
    "version": 1
  }
}